:100000005CC0000081C000007FC000007DC0000017
:100010007BC0000079C0000077C0000075C0000000
:1000200073C0000071C000006FC000006DC0000010
:100030006BC0000069C0000067C0000065C0000020
:1000400032C3000061C000000C94B70A0C94E30AAC
:100050005BC0000059C0000057C0000055C0000040
:1000600053C0000051C00000000000002400270021
:100070002A0000000000250028002B0004040404CE
:100080000404040402020202020203030303030342
:10009000010204081020408001020408102001021F
:1000A00004081020000000080002010000030407FB
:1000B00000000000000000004A0B11241FBECFEF1B
:1000C000D8E0DEBFCDBF11E0A0E0B1E0ECEAF7E19F
:1000D00002C005900D92A233B107D9F721E0A2E347
:1000E000B1E001C01D92A53FB207E1F710E0CDE5F8
:1000F000D0E004C02197FE010E94CA0BCC35D10785
:10010000C9F773D20C94D40B7BCFCF93DF9300D07D
:10011000CDB7DEB789836A838A81882321F460E0C2
:10012000898120D40AC08A81813021F461E08981EB
:1001300019D403C062E0898115D400000F900F909C
:10014000DF91CF910895CF93DF9300D0CDB7DEB785
:1001500089836A838A81882321F061E089812CD593
:1001600003C060E0898128D500000F900F90DF91D7
:10017000CF910895CF93DF9300D0CDB7DEB78091B4
:10018000EF019091F001A091F101B091F201843F53
:100190009140A105B1056CF48091EF019091F001BF
:1001A000A091F101B091F201BB231CF081E090E03D
:1001B00002C080E090E09A8389838091EF01909162
:1001C000F001A091F101B091F201873E9340A105A9
:1001D000B1054CF01092EF011092F0011092F10174
:1001E0001092F20113C08091EF019091F001A09163
:1001F000F101B091F2010196A11DB11D8093EF01B3
:100200009093F001A093F101B093F2018981682FDE
:1002100089E099DF00000F900F90DF91CF91089552
:10022000CF93DF93CDB7DEB71092E70181E090E086
:10023000A0E0B0E08093E8019093E901A093EA0187
:10024000B093EB0161E089E060DF81E08093EC0135
:100250000000DF91CF910895CF93DF93CDB7DEB744
:100260008091E701882319F481E08093E701000081
:10027000DF91CF910895CF93DF93CDB7DEB726E01E
:1002800030E040E855E260E070E080E090E004D0CB
:100290000000DF91CF910895CF93DF93CDB7DEB704
:1002A0002A970FB6F894DEBF0FBECDBF9C838B8319
:1002B0004D835E836F8378873A8729871092350153
:1002C0001092340189859A859A8389838B819C81D8
:1002D000092E000CAA0BBB0B89309105A105B105B5
:1002E00008F0D1C089589E4FFC010C94CA0B8001C4
:1002F0009D01B001C301D601E901FC010E021F02FC
:10030000809134019091350181709927892B09F0F2
:10031000A9C080913401909135018160909335019D
:100320008093340129818D819E81AF81B885AC0194
:10033000BD018AE491E04ED5A6C080913401909130
:10034000350182709927892B09F08EC08091340184
:10035000909135018260909335018093340193C070
:10036000809134019091350184709927892B09F08F
:100370007DC0809134019091350184609093350166
:100380008093340180C08091340190913501887050
:100390009927892B09F06CC0809134019091350127
:1003A000886090933501809334016DC08091340151
:1003B0009091350180719927892B09F05BC080915C
:1003C000340190913501806190933501809334011F
:1003D0005AC0809134019091350180729927892B00
:1003E00009F04AC080913401909135018062909368
:1003F00035018093340147C08091340190913501DB
:1004000080749927892BD1F5809134019091350121
:100410008064909335018093340135C0809134011C
:100420009091350180789927892B51F5809134017D
:1004300090913501806890933501809334018091CB
:1004400034019091350188279170892BD9F48091DE
:10045000340190913501916090933501809334017E
:10046000000011C000000FC000000DC000000BC054
:10047000000009C0000007C0000005C0000003C064
:10048000000001C000002A960FB6F894DEBF0FBE30
:10049000CDBFDF91CF910895CF93DF93CDB7DEB776
:1004A0000000DF91CF910895EF92FF920F931F9379
:1004B000CF93DF9300D000D01F92CDB7DEB7198263
:1004C00063D1DC01CB0180933A0190933B01A0936F
:1004D0003C01B0933D0120913A0130913B014091A4
:1004E0003C0150913D018091360190913701A091DE
:1004F0003801B091390179018A01E81AF90A0A0B29
:100500001B0BD801C701883E9340A105B10508F433
:100510003CC080913A0190913B01A0913C01B09187
:100520003D018093360190933701A0933801B09339
:1005300039013AD029D1DC01CB018A839B83AC837A
:10054000BD838091360190913701A0913801B0911F
:1005500039012A813B814C815D8179018A01E81A48
:10056000F90A0A0B1B0BD801C701883E9340A1056D
:10057000B10538F081E090E090933F0180933E0117
:1005800004C010923F0110923E0181E0898389816D
:100590000F900F900F900F900F90DF91CF911F91C0
:1005A0000F91FF90EF900895CF93DF93CDB7DEB713
:1005B0008091400191E0980F90934001882361F071
:1005C00081E090E090933F0180933E018091400153
:1005D00081508093400106C0CDDD80914001815063
:1005E00080934001DF91CF910895CF93DF93CDB7F2
:1005F000DEB728970FB6F894DEBF0FBECDBF8FE6EB
:1006000092E1A3E8BAE389839A83AB83BC831D821A
:100610001E821F8218861092F4011092F30113D1EA
:100620002ADE8091000190910101FC01118210826B
:10063000F7DDF89431DF8091000190910101FC0118
:100640008081918121E0892B09F020E0822F809325
:10065000F301789417C08091000190910101FC0191
:100660008081918121E0892B09F420E0822F809301
:10067000F4019091F40181E0992309F080E08093E6
:10068000F30112DF8091F301882329F7E5DDF89467
:1006900080E090E028960FB6F894DEBF0FBECDBF85
:1006A000DF91CF9108951F920F920FB60F921124F0
:1006B0008F939F93AF93BF93CF93DF93CDB7DEB765
:1006C0002597DEBFCDBF8091450190914601A09155
:1006D0004701B091480189839A83AB83BC838091A1
:1006E00049018D8389819A81AB81BC810196A11DCD
:1006F000B11D89839A83AB83BC838D818D5F8D838C
:100700008D818D3770F08D818D578D8389819A8190
:10071000AB81BC810196A11DB11D89839A83AB83F6
:10072000BC838D818093490189819A81AB81BC8191
:100730008093450190934601A0934701B0934801EF
:100740008091410190914201A0914301B0914401F7
:100750000196A11DB11D8093410190934201A09388
:100760004301B093440100000F900F900F900F9041
:100770000F90DF91CF91BF91AF919F918F910F908B
:100780000FBE0F901F901895CF93DF9300D000D02D
:1007900000D0CDB7DEB78FE590E0FC0180818D837E
:1007A000F8948091410190914201A0914301B09150
:1007B000440189839A83AB83BC8386E490E0FC0187
:1007C00080818E8385E390E0FC018081882F90E01A
:1007D00081709927892B71F08E818F3F59F0898123
:1007E0009A81AB81BC810196A11DB11D89839A8339
:1007F000AB83BC838FE590E02D81FC012083898150
:100800009A81AB81BC812227382F492F5A2F8E81A4
:10081000882F90E0A0E0B0E0820F931FA41FB51FC7
:10082000880F991FAA1FBB1F880F991FAA1FBB1FE4
:10083000BC01CD0126960FB6F894DEBF0FBECDBF2A
:10084000DF91CF910895CF93DF93CDB7DEB7789442
:1008500084E490E0FC01208184E490E02260FC01CB
:10086000208384E490E0FC01208184E490E0216016
:10087000FC01208385E490E0FC01208185E490E088
:100880002260FC01208385E490E0FC01208185E466
:1008900090E02160FC0120838EE690E0FC01208145
:1008A0008EE690E02160FC01208381E890E0FC016D
:1008B000108281E890E0FC01208181E890E02260D4
:1008C000FC01208381E890E0FC01208181E890E038
:1008D0002160FC01208380E890E0FC01208180E819
:1008E00090E02160FC01208381EB90E0FC012081FD
:1008F00081EB90E02460FC01208380EB90E0FC0120
:10090000208180EB90E02160FC0120838AE790E069
:10091000FC0120818AE790E02460FC0120838AE7C3
:1009200090E0FC0120818AE790E02260FC012083B6
:100930008AE790E0FC0120818AE790E02160FC01D9
:1009400020838AE790E0FC0120818AE790E020681C
:10095000FC01208381EC90E0FC0110820000DF911B
:10096000CF910895CF93DF93CDB7DEB769970FB6D8
:10097000F894DEBF0FBECDBF888F698F888D882F1A
:1009800090E080579F4F9A83898389819A81FC01E7
:1009900084918B838B818C83888D882F90E0845801
:1009A0009F4F9E838D838D819E81FC0184918F83D7
:1009B0008F8188878885882309F495C08885882F4A
:1009C00090E0880F991F88599F4F9A87898789855A
:1009D0009A85FC0125913491CF013C872B879A871A
:1009E00089878B859C859E878D878885882F90E059
:1009F000880F991F8E589F4F988B8F878F85988966
:100A0000FC0125913491CF013A8B298B988B8F87EC
:100A100089899A899C8B8B8B898D882331F58FE509
:100A200090E0FC0180818F8BF8948D859E85FC0180
:100A30008081982F8C8180958923282F8D859E8594
:100A4000FC0120838B899C89FC018081982F8C81FB
:100A500080958923282F8B899C89FC0120838FE531
:100A600090E02F89FC0120833FC0898D823021F5E1
:100A70008FE590E0FC0180818E8BF8948D859E85BA
:100A8000FC018081982F8C8180958923282F8D856A
:100A90009E85FC0120838B899C89FC0190818C813F
:100AA000292F282B8B899C89FC0120838FE590E0DE
:100AB0002E89FC01208318C08FE590E0FC01808125
:100AC0008D8BF8948D859E85FC0190818C81292FDA
:100AD000282B8D859E85FC0120838FE590E02D8954
:100AE000FC01208301C0000069960FB6F894DEBFB8
:100AF0000FBECDBFDF91CF910895CF93DF931F92AB
:100B0000CDB7DEB789838981882F90E08330910546
:100B100091F08430910534F48130910501F1029710
:100B200041F145C08730910571F188309105A9F1F7
:100B3000049759F03CC080E890E0FC01208180E8F7
:100B400090E02F77FC01208332C080E890E0FC0128
:100B5000208180E890E02F7DFC01208328C084E480
:100B600090E0FC01208184E490E02F77FC01208359
:100B70001EC084E490E0FC01208184E490E02F7D9D
:100B8000FC01208314C080EB90E0FC01208180EB0D
:100B900090E02F77FC0120830AC080EB90E0FC01FD
:100BA000208180EB90E02F7DFC012083000000007D
:100BB0000F90DF91CF910895CF93DF93CDB7DEB73C
:100BC00065970FB6F894DEBF0FBECDBF8C8B6D8BD3
:100BD0008C89882F90E08C559F4F9A8389838981D7
:100BE0009A81FC0184918B838B818C838C89882FE3
:100BF00090E080579F4F9E838D838D819E81FC0165
:100C000084918F838F8188878C89882F90E0845886
:100C10009F4F9A87898789859A85FC0184918B8764
:100C20008B858C878C85882309F444C08C8188232C
:100C300011F08C8162DF8C85882F90E0880F991FDE
:100C40008E589F4F9E878D878D859E85FC012591AF
:100C50003491CF01388B2F879E878D878F85988918
:100C60009A8B898B8FE590E0FC0180818B8BF894C7
:100C70008D89882371F489899A89FC018081982F54
:100C8000888580958923282F89899A89FC0120836A
:100C90000BC089899A89FC0190818885292F282B8E
:100CA00089899A89FC0120838FE590E02B89FC01DA
:100CB000208301C0000065960FB6F894DEBF0FBE1A
:100CC000CDBFDF91CF910895CF93DF93CDB7DEB73E
:100CD000F89481E0DF91CF910895CF93DF9300D016
:100CE000CDB7DEB79A8389838FE590E029813A8179
:100CF000F9012081FC01208300000F900F90DF910B
:100D0000CF910895CF93DF9300D01F92CDB7DEB778
:100D10009B838A838A819B81FC01848D882F90E04C
:100D20002A813B81820F931F835A9F4FFC01808150
:100D300089838A819B81FC01848D882F90E00196B4
:100D40008F739078992324F40197806C9F6F01969C
:100D5000282F8A819B81FC01248F8A819B81FC0141
:100D6000868997892981FC0120838A819B81FC01E6
:100D700080899189FC0180818370282F20648A8179
:100D80009B81FC0180899189FC0120838A819B8160
:100D9000FC01238D8A819B81FC01948D81E02917C0
:100DA00009F080E0882379F08A819B81FC018289A7
:100DB0009389FC0120818A819B81FC01828993892E
:100DC0002F7DFC01208300000F900F900F90DF918A
:100DD000CF910895CF93DF93CDB7DEB729970FB6A4
:100DE000F894DEBF0FBECDBF9C838B834D835E83A3
:100DF0006F837887298780E099E0ADE3B0E02D81AB
:100E00003E814F815885BC01CD01A2D4DA01C901D0
:100E10000197A109B109B695A795979587959A83EA
:100E200089838B819C81FC018089918922E0FC016E
:100E300020838D819E81AF81B8858115914EA1055A
:100E4000B10529F089819A8181159041E8F08B8163
:100E50009C81FC0180899189FC01108280E894E8E2
:100E6000AEE1B0E02D813E814F815885BC01CD01BE
:100E70006FD4DA01C9010197A109B109B695A79507
:100E8000979587959A83898389819A81292F33271A
:100E90008B819C81FC0184859585FC0120838B815D
:100EA0009C81FC01868597852981FC0120838B81AB
:100EB0009C81FC01108E8B819C81FC018489958929
:100EC0002985FC0120838B819C81FC018289938987
:100ED000FC0120818B819C81FC01828993892061A6
:100EE000FC0120838B819C81FC0182899389FC0118
:100EF00020818B819C81FC01828993892860FC017F
:100F000020838B819C81FC0182899389FC01208153
:100F10008B819C81FC01828993892068FC0120835C
:100F20008B819C81FC0182899389FC0120818B81CA
:100F30009C81FC01828993892F7DFC012083000024
:100F400029960FB6F894DEBF0FBECDBFDF91CF91CB
:100F50000895CF93DF9300D0CDB7DEB79A8389830E
:100F600089819A81FC01818D882F90E09C01205C11
:100F70003F4F89819A81FC01828D882F90E0A901E1
:100F8000481B590BCA018F7399270F900F90DF915F
:100F9000CF910895CF93DF9300D0CDB7DEB79A837A
:100FA000898389819A81FC01218D89819A81FC0143
:100FB000928D81E0291709F080E0882319F08FEFE6
:100FC0009FEF0FC089819A81FC01828D882F90E06C
:100FD00029813A81820F931F4D96FC018081882FD1
:100FE00090E00F900F90DF91CF910895CF93DF9312
:100FF00000D01F92CDB7DEB79B838A838A819B8105
:10100000FC01218D8A819B81FC01928D81E0291751
:1010100009F080E0882319F08FEF9FEF1CC08A81D0
:101020009B81FC01828D882F90E02A813B81820F79
:10103000931F4D96FC01808189838A819B81FC01ED
:10104000828D8F5F282F2F738A819B81FC01228FD5
:101050008981882F90E00F900F900F90DF91CF91B2
:101060000895CF93DF9300D000D0CDB7DEB79C8337
:101070008B838B819C81FC01838D89838B819C81F7
:10108000FC01848D8A8399818A81981768F089810F
:10109000882F90E02FE330E0281B390B8A81882FBE
:1010A00090E0820F931F0BC08A81282F30E0898146
:1010B000882F90E0A901481B590BCA0101970F9096
:1010C0000F900F900F90DF91CF910895CF93DF9302
:1010D00000D0CDB7DEB79A83898389819A81FC01DC
:1010E000908D81E08927882309F04DC089819A81FC
:1010F000FC0182899389FC018081882F90E08072B5
:101100009927892B69F489819A81FC0180899189C9
:10111000FC018081882F90E080749927892B11F43D
:1011200081E001C080E0882379F18FE590E0FC0147
:10113000808188237CF089819A81FC01828993894E
:10114000FC018081882F90E080729927892B11F013
:1011500081E001C080E0882349F289819A81FC0105
:1011600080899189FC018081882F90E08072992785
:1011700021E0892B09F420E0222309F4B7CF8981EB
:101180009A81C0DDB3CF00000F900F90DF91CF9117
:101190000895CF93DF93CDB7DEB728970FB6F894B5
:1011A000DEBF0FBECDBF9F838E8368878E819F81F8
:1011B00021E0FC01208F8E819F81FC01238D8E8197
:1011C0009F81FC01848D281779F48E819F81FC0119
:1011D00080899189FC018081882F90E08072992715
:1011E000892B11F081E001C080E0882359F18FE55F
:1011F00090E0FC0180818C8367DD8983898188236D
:10120000D9F08E819F81FC01868997892885FC0110
:1012100020838E819F81FC0180899189FC018081DE
:101220008370282F20648E819F81FC0180899189A1
:10123000FC0120831982E2CFCE0104964EDD81E0CD
:1012400090E06EC08E819F81FC01838D882F90E09D
:1012500001968F739078992324F40197806C9F6F87
:1012600001968B838E819F81FC01948D81E02B817F
:10127000291709F080E08823F9F08FE590E0FC0160
:1012800080818095881F8827881F882359F38E8145
:101290009F81FC0180899189FC018081882F90E0E9
:1012A0008072992721E0892B09F420E02223D1F2D2
:1012B0008E819F8127DDD6CF8E819F81FC01838D1A
:1012C000882F90E02E813F81820F931F835A9F4F7A
:1012D0002885FC0120838FE590E0FC0180818D83CF
:1012E000F3DC8A838A818823B1F08E819F812B81F0
:1012F000FC01238F8E819F81FC0182899389FC01EF
:1013000020818E819F81FC01828993892062FC016A
:1013100020831A82E7CFCE010596DFDC81E090E0E2
:1013200028960FB6F894DEBF0FBECDBFDF91CF91E8
:101330000895CF93DF9300D0CDB7DEB79A8389832A
:101340002AE231E089819A81FC01318320838981FD
:101350009A81FC011382128200000F900F90DF919E
:10136000CF910895CF93DF9300D0CDB7DEB79A83A6
:10137000898380E090E00F900F90DF91CF910895E6
:10138000CF93DF9300D0CDB7DEB79A838983000077
:101390000F900F90DF91CF910895CF93DF9300D0FE
:1013A000CDB7DEB79A83898389819A81C2DF28E12C
:1013B00031E089819A81FC013183208329813A813E
:1013C00088EE93E0A0E0B0E0F90184839583A683E2
:1013D000B78300000F900F90DF91CF910895CF92C7
:1013E000DF92EF92FF920F931F93CF93DF93CDB7CE
:1013F000DEB72E970FB6F894DEBF0FBECDBF9A832F
:1014000089837C836B835E834D8338872F831A8720
:101410000987FC86EB86DE86CD8689819A81BDDFD1
:1014200026E031E089819A81FC0131832083898122
:101430009A812B813C81FC013587248789819A819F
:101440002D813E81FC013787268789819A812F81F2
:101450003885FC01318B208B89819A8129853A85D9
:10146000FC01338B228B89819A812B853C85FC0181
:10147000358B248B89819A812D853E85FC01378BA4
:10148000268B89819A81FC01118E89819A81FC01C8
:10149000128E89819A81FC01138E89819A81FC01C7
:1014A000148E00002E960FB6F894DEBF0FBECDBF8F
:1014B000DF91CF911F910F91FF90EF90DF90CF9030
:1014C0000895CF93DF9300D000D0CDB7DEB79C83D3
:1014D0008B838B819C81FC0180899189FC018081B7
:1014E000882F90E08470992721E0892B09F020E073
:1014F000222371F18B819C81FC0186899789FC01F3
:10150000808189838B819C81FC01818D8F5F8F73AA
:101510008A838B819C81FC01928D81E02A8129172D
:1015200009F480E08823D9F08B819C81FC01818DB6
:10153000882F90E02B813C81820F931F4D9629814B
:10154000FC0120838B819C812A81FC01218F07C0B3
:101550008B819C81FC0186899789FC018081000038
:101560000F900F900F900F90DF91CF9108951F92E1
:101570000F920FB60F9211242F933F934F935F93C7
:101580006F937F938F939F93AF93BF93EF93FF934B
:10159000CF93DF93CDB7DEB78AE491E092DF00000E
:1015A000DF91CF91FF91EF91BF91AF919F918F917B
:1015B0007F916F915F914F913F912F910F900FBE4F
:1015C0000F901F9018951F920F920FB60F92112433
:1015D0002F933F934F935F936F937F938F939F933B
:1015E000AF93BF93EF93FF93CF93DF93CDB7DEB766
:1015F0008AE491E087DB0000DF91CF91FF91EF91CA
:10160000BF91AF919F918F917F916F915F914F911A
:101610003F912F910F900FBE0F901F901895CF9272
:10162000DF92EF92FF920F931F93CF93DF9300D03F
:1016300000D0CDB7DEB79A8389837C836B838981A1
:101640009A810197C9F48B819C810196A9F40F2E90
:10165000F6ECCF2ED12CF02D0F2EF2ECEF2EF12C3C
:10166000F02D01EC10E020EC30E044EC50E065ECB3
:1016700070E08AE491E0B3DE00000F900F900F90CD
:101680000F90DF91CF911F910F91FF90EF90DF901E
:10169000CF900895CF93DF93CDB7DEB76FEF7FEF95
:1016A00081E090E0BCDFDF91CF910895CF93DF938D
:1016B000CDB7DEB728970FB6F894DEBF0FBECDBF0B
:1016C0009C838B837E836D8358874F831A82198214
:1016D0008F8198859C012150310938872F8321E023
:1016E000892B09F420E0222319F18B819C81FC01D4
:1016F00080819181FC01208131818D819E81AC01AD
:101700004F5F5F4F5E834D83FC0140818B819C81E5
:10171000642FF901099521E0892B09F420E02223A7
:1017200031F089819A8101969A838983D1CF000013
:1017300089819A8128960FB6F894DEBF0FBECDBF7F
:10174000DF91CF910895CF93DF93CDB7DEB728D047
:10175000A1E21A2EAA1BBB1BFD010DC0AA1FBB1FB5
:10176000EE1FFF1FA217B307E407F50720F0A21B27
:10177000B30BE40BF50B661F771F881F991F1A9494
:1017800069F760957095809590959B01AC01BD01BE
:10179000CF010895EE0FFF1F0590F491E02D0994FD
:0C17A00081E090E0F89400C0F894FFCFC6
:1017AC00320100000000C908560B31086608A90771
:1017BC00F607CA0700000000A30B560BB209C009BC
:1017CC00A30BA30BA30B00000000A30B560BB20939
:0217DC00C00942
:00000001FF
