:100000006BC0000091C000008FC000008DC00000D8
:100010008BC0000089C0000087C0000085C00000C0
:1000200083C0000081C000007FC000007DC00000D0
:100030007BC0000079C0000077C0000075C00000E0
:100040000C94F05371C000000C94B95B0C94E55B08
:100050006BC0000069C0000067C0000065C0000000
:1000600063C0000061C0000005A84CCDB2D44EB9F9
:100070003836A9020C50B9918688083CA6AAAA2A4B
:10008000BE000000803F00000000240027002A007E
:1000900000000000250028002B00040404040404D0
:1000A0000404020202020202030303030303010227
:1000B00004081020408001020408102001020408F6
:1000C00010200000000800020100000304070000E7
:1000D0000000000000004C5C11241FBECFEFD8E0F0
:1000E000DEBFCDBF12E0A0E0B1E0EAE3FAEB02C070
:1000F00005900D92AE30B107D9F725E0AEE0B2E041
:1001000001C01D92AF3CB207E1F710E0CCE6D0E0B1
:1001100004C02197FE010E94E85CCB36D107C9F7E5
:100120000E9401500C941B5D6BCFCF93DF9300D0E6
:10013000CDB7DEB789836A838A81882329F460E09A
:1001400089810E94B4550CC08A81813029F461E014
:1001500089810E94B45504C062E089810E94B4552F
:1001600000000F900F90DF91CF910895CF93DF9310
:1001700000D0CDB7DEB789836A838A81882329F0CE
:1001800061E089810E94DE5604C060E089810E949E
:10019000DE5600000F900F90DF91CF910895CF931E
:1001A000DF9300D000D000D0CDB7DEB79C838B8327
:1001B0007E836D831A82198289819A8126960FB671
:1001C000F894DEBF0FBECDBFDF91CF910895CF93DE
:1001D000DF93CDB7DEB728970FB6F894DEBF0FBE1A
:1001E000CDBF9E838D8378876F831C821B828D8118
:1001F0009E81892B19F48FEF9FEFB6C08F81988570
:10020000892B19F48FEF9FEFAFC08091000190917F
:100210000101A0910201B09103018E3F9F4FAF4FAA
:10022000BF4F81F48F819885FC0180819181A281EB
:10023000B3818093000190930101A0930201B093D8
:1002400003010FC08091000190910101A091020172
:10025000B09103012F813885F90180839183A283B6
:10026000B3838091000190910101A0910201B091AE
:1002700003018D819E81FC0182819381FC0180813B
:100280009181A281B3818093E9029093EA02A093C5
:10029000EB02B093EC028D819E81FC0182819381FF
:1002A000FC0184819581A681B7818093ED029093B2
:1002B000EE02A093EF02B093F0028D819E81FC01CB
:1002C00082819381FC0180859185A285B38580938D
:1002D000F1029093F202A093F302B093F4028D81A5
:1002E0009E81FC0182819381FC0184859585A68590
:1002F000B7858093F5029093F602A093F702B0932E
:10030000F8021092F9021092FA021092FB02109277
:10031000FC020E9458141A8219821A82198210C093
:1003200089819A81880F991F825F9D4F23E834E16C
:10033000FC013183208389819A8101969A83898384
:1003400089819A81029760F30E945A0F9C838B8364
:100350008B819C81892B31F481E090E09093E802BD
:100360008093E7028B819C8128960FB6F894DEBFBC
:100370000FBECDBFDF91CF910895CF93DF93CDB75F
:10038000DEB72C970FB6F894DEBF0FBECDBF6987DE
:100390007A878B879C871A8219821B821C821D8216
:1003A0001E821F829091E50281E0992309F080E08E
:1003B000888782E090E09093E8028093E702898545
:1003C0009A85AB85BC85892B8A2B8B2B59F4809120
:1003D000E502882339F48091E602882319F481E04C
:1003E00090E002C080E090E08F8331C06AE070E06E
:1003F00080E090E00E94C0548B819C81AD81BE81E1
:10040000805F984DAF4FBF4F8B839C83AD83BE837E
:1004100089859A85AB85BC858F3F9F4FAF4FBF4F76
:1004200081F02B813C814D815E8189859A85AB85E8
:10043000BC8582179307A407B50718F481E090E004
:1004400002C080E090E08F8380E00E94A30F809143
:10045000E502882339F48091E602882319F48F811C
:10046000882321F283E090E09093E8028093E702F2
:100470008F81882321F08CE99FEF9A838983888577
:10048000882311F00E94801589819A812C960FB6DD
:10049000F894DEBF0FBECDBFDF91CF910895CF930B
:1004A000DF93CDB7DEB761970FB6F894DEBF0FBE0E
:1004B000CDBF9D878C874E875F87688B798B1A822B
:1004C000198281E08B838C859D858F3F910521F07A
:1004D00018F08FEF9FEF63C08091E7029091E802E0
:1004E000039731F08091E7029091E802019731F48F
:1004F00084E090E09093E8028093E7028C859D85EC
:10050000029708F58C859D85880F991F825F9D4F06
:10051000FC0180819181892BB1F00E943F1A9D835B
:100520008C838C819D81029771F48C859D85880FC9
:10053000991F825F9D4FFC01208131818C859D85B3
:10054000F90109958B838C859D859F838E832C85EE
:100550003D858E859F85A889B989A901BC01CD01FA
:100560000E94360FDC01CB0188879987AA87BB8759
:100570008B81882371F088859985AA85BB852E811A
:100580003F81AC01BD01C9010E940D1A9A83898384
:1005900004C08E819F810E94821A89819A8161960E
:1005A0000FB6F894DEBF0FBECDBFDF91CF91089597
:1005B000CF93DF9300D0CDB7DEB71A82198280E0E7
:1005C0000E94A30F9A83898389819A810F900F904B
:1005D000DF91CF910895CF93DF9300D0CDB7DEB7F1
:1005E0001A82198286E090E09093E8028093E702F5
:1005F0000E9433109A83898344E050E060E070E009
:100600008EE092E00E94145D0E9412151092E802A2
:100610001092E70289819A810F900F90DF91CF911C
:100620000895CF93DF93CDB7DEB78091E602DF91D7
:10063000CF910895CF93DF93CDB7DEB78091FD02C0
:10064000DF91CF910895CF93DF9300D000D0CDB745
:10065000DEB769837A838B839C8389819A81AB819E
:10066000BC818093000190930101A0930201B0939B
:10067000030180E090E00F900F900F900F90DF91BA
:10068000CF910895CF93DF93CDB7DEB72E970FB6F6
:10069000F894DEBF0FBECDBF80E290E09E838D83D5
:1006A00019821A821B821C828D819E81809741F45F
:1006B0002AD0DC01CB0189839A83AB83BC8314C02D
:1006C00080E090E0A0EFBFE78B879C87AD87BE8777
:1006D0001F82188619861A868F819885A985BA8502
:1006E00089839A83AB83BC8389819A81AB81BC81E6
:1006F000BC01CD012E960FB6F894DEBF0FBECDBF64
:10070000DF91CF910895CF93DF9300D000D0CDB784
:10071000DEB780E090E0A0E8BFE789839A83AB83EF
:10072000BC8389819A81AB81BC81BC01CD010F90D2
:100730000F900F900F90DF91CF910895CF93DF939B
:10074000CDB7DEB72E970FB6F894DEBF0FBECDBF84
:1007500080E290E09E838D8319821A821B821C8224
:100760008D819E81809741F42AD0DC01CB01898361
:100770009A83AB83BC8314C080E090E0A0EFBFEF0E
:100780008B879C87AD87BE871F82188619861A863D
:100790008F819885A985BA8589839A83AB83BC8329
:1007A00089819A81AB81BC81BC01CD012E960FB6A7
:1007B000F894DEBF0FBECDBFDF91CF910895CF93E8
:1007C000DF9300D000D0CDB7DEB780E090E0A0E8A6
:1007D000BFEF89839A83AB83BC8389819A81AB8184
:1007E000BC81BC01CD010F900F900F900F90DF9155
:1007F000CF910895CF93DF93CDB7DEB72E970FB685
:10080000F894DEBF0FBECDBF80E290E09E838D8363
:1008100019821A821B821C828D819E81809741F4ED
:100820002AD0DC01CB0189839A83AB83BC8314C0BB
:1008300080E090E0A8EFBFEF8B879C87AD87BE87F5
:100840001F82188619861A868F819885A985BA8590
:1008500089839A83AB83BC8389819A81AB81BC8174
:10086000BC01CD012E960FB6F894DEBF0FBECDBFF2
:10087000DF91CF910895CF93DF9300D000D0CDB713
:10088000DEB719821A821B821C8280E090E0A0EC05
:10089000BFEF89839A83AB83BC8389819A81AB81C3
:1008A000BC81BC01CD010F900F900F900F90DF9194
:1008B000CF910895CF93DF9300D0CDB7DEB79A8361
:1008C000898398DFDC01CB018093A6059093A7056F
:1008D000A093A805B093A905CEDFDC01CB018093DE
:1008E0009A0590939B05A0939C05B0939D05CADE45
:1008F000DC01CB018093A2059093A305A093A405EE
:10090000B093A50500DFDC01CB0180939E05909399
:100910009F05A093A005B093A10510DFDC01CB01DA
:100920008093AA059093AB05A093AC05B093AD0559
:1009300046DFDC01CB018093AE059093AF05A09319
:10094000B005B093B10500000F900F90DF91CF91EB
:100950000895CF93DF9300D000D0CDB7DEB7698381
:100960007A838B839C838091A2059091A305A091AB
:10097000A405B091A5059C01AD0169817A818B81A7
:100980009C810E945251882391F08091AA059091F8
:10099000AB05A091AC05B091AD059C01AD0169819D
:1009A0007A818B819C810E945251882311F481E0CD
:1009B00001C080E00F900F900F900F90DF91CF91CA
:1009C0000895CF93DF93CDB7DEB72F970FB6F89486
:1009D000DEBF0FBECDBF6C877D878E879F87198254
:1009E00080E290E09B838A838A819B81809749F48F
:1009F0008C859D85AE85BF85BC01CD0138D08983AE
:100A00002CC08C859D85AE85BF858C839D83AE83F0
:100A1000BF8388859985AA85BB8588279927A07F6C
:100A2000BF770097A04FBF47A9F488859985AA850D
:100A3000BB85AF70BB27892B8A2B8B2B41F48C8114
:100A40009D81AE81BF81892B8A2B8B2B19F081E090
:100A500090E002C080E090E0898389812F960FB6F4
:100A6000F894DEBF0FBECDBFDF91CF910895CF9335
:100A7000DF93CDB7DEB728970FB6F894DEBF0FBE71
:100A8000CDBF6D837E838F8398878D819E81AF815B
:100A9000B88589839A83AB83BC8389819A81AB8132
:100AA000BC8188279927A078BF770097A048BF47C7
:100AB00069F489819A81AB81BC81AF77BB27892B8F
:100AC0008A2B8B2B19F081E090E002C080E090E04F
:100AD00028960FB6F894DEBF0FBECDBFDF91CF9141
:100AE0000895CF92DF92EF92FF920F931F93CF93CF
:100AF000DF93CDB7DEB7A6970FB6F894DEBF0FBE73
:100B0000CDBF698F7A8F8B8F9C8F5E8F4D8F38A36F
:100B10002F8F1AA309A3CBA2DCA2EDA2FEA28D8D7A
:100B20009E8DFC0180819181A281B3819C01AD01E8
:100B3000698D7A8D8B8D9C8D0E9452511816CCF147
:100B40001D821E821F8218868D8D9E8DFC018081E4
:100B50009181A281B3819C01AD01698D7A8D8B8DCC
:100B60009C8D0E94DA50DC01CB016C017D018D8DE2
:100B70009E8D0496FC0180819181A281B3812D8D8F
:100B80003E8DF9012081318142815381BC01CD012B
:100B90000E94DA50DC01CB019C01AD01C701B60116
:100BA0000E945951DC01CB0189839A83AB83BC83BA
:100BB00067C18BA19CA1880F991F880F991F2D8D4C
:100BC0003E8D820F931FFC0180819181A281B381B0
:100BD0009C01AD01698D7A8D8B8D9C8D0E94525147
:100BE00088230CF0F3C089A19AA1FC018081918136
:100BF000A281B3818D839E83AF83B8871D861E86B5
:100C00001F86188A8BA19CA1ADA1BEA1898B9A8B4E
:100C1000AB8BBC8B19861A861B861C8681C08D8186
:100C20009E81880F991F880F991F2D8D3E8D820FF1
:100C3000931FFC0180819181A281B3819C01AD0150
:100C4000698D7A8D8B8D9C8D0E94525188231CF565
:100C50008D819E81AF81B8850197A109B109898BEA
:100C60009A8BAB8BBC8B2D813E814F8158858D85B6
:100C70009E85AF85B889820F931FA41FB51F01976A
:100C8000A109B109B695A795979587958D839E8300
:100C9000AF83B88745C08D819E810196880F991FCB
:100CA000880F991F2D8D3E8D820F931FFC0180812F
:100CB0009181A281B3819C01AD01698D7A8D8B8D6B
:100CC0009C8D0E94525188234CF481E090E0A0E07A
:100CD000B0E089879A87AB87BC8722C08D819E81CF
:100CE000AF81B8850196A11DB11D8D879E87AF8705
:100CF000B88B2D813E814F81588589899A89AB892E
:100D0000BC89820F931FA41FB51F0196A11DB11DA1
:100D1000B695A795979587958D839E83AF83B88762
:100D200089859A85AB85BC85892B8A2B8B2B09F409
:100D300076CF8D819E81880F991F880F991F2D8DE9
:100D40003E8D820F931FFC0180819181A281B3812E
:100D50009C01AD01698D7A8D8B8D9C8D0E94DA503E
:100D6000DC01CB016C017D018D819E810196880F94
:100D7000991F880F991F2D8D3E8D820F931FFC01A7
:100D800080819181A281B3812D813E81220F331F09
:100D9000220F331F4D8D5E8D240F351FF9012081E9
:100DA000318142815381BC01CD010E94DA50DC01C6
:100DB000CB019C01AD01C701B6010E945951DC0174
:100DC000CB0189839A83AB83BC835AC08BA19CA13E
:100DD000ADA1BEA10197A109B1098D839E83AF8307
:100DE000B8878BA19CA18150904C880F991F880FC8
:100DF000991F2D8D3E8D820F931FFC018081918163
:100E0000A281B3819C01AD01698D7A8D8B8D9C8D02
:100E10000E94DA50DC01CB016C017D018BA19CA109
:100E2000880F991F880F991F2D8D3E8D820F931F5C
:100E3000FC0180819181A281B3812BA13CA1215031
:100E4000304C220F331F220F331F4D8D5E8D240F28
:100E5000351FF9012081318142815381BC01CD01CF
:100E60000E94DA50DC01CB019C01AD01C701B60143
:100E70000E945951DC01CB0189839A83AB83BC83E7
:100E800029A13AA18D819E81AF81B885F901808326
:100E90009183A283B3838D819E81880F991F880FD0
:100EA000991F2F8D38A1820F931FFC0180819181A2
:100EB000A281B3818D8B9E8BAF8BB88F8D819E81EC
:100EC0000196880F991F880F991F2F8D38A1820FC7
:100ED000931FFC0180819181A281B3812D893E897C
:100EE0004F89588DBC01CD010E94DA50DC01CB0145
:100EF00029813A814B815C81BC01CD010E94515313
:100F0000DC01CB012D893E894F89588DBC01CD0173
:100F10000E94DB50DC01CB01BC01CD01A6960FB6CF
:100F2000F894DEBF0FBECDBFDF91CF911F910F911F
:100F3000FF90EF90DF90CF900895CF93DF93CDB7E0
:100F4000DEB782E192E09C0123553F4FF9012081F9
:100F50002F5F83559F4FFC01208382E192E08355F0
:100F60009F4FFC0180818A3030F082E192E083550E
:100F70009F4FFC0110820000DF91CF910895CF9226
:100F8000DF92EF92FF921F93CF93DF93CDB7DEB73F
:100F900060970FB6F894DEBF0FBECDBF69877A8722
:100FA0008B879C872D873E874F87588B89859A85AD
:100FB000AB85BC85BC01CD0104DD882391F48D8512
:100FC0009E85AF85B889BC01CD01FBDC882349F43F
:100FD00089859A85AB85BC85BC01CD01BADC8823A7
:100FE00069F08091A6059091A705A091A805B09100
:100FF000A9058D839E83AF83B887D3C08D859E85D9
:10100000AF85B889BC01CD01A4DC882349F089856E
:101010009A85AB85BC858D839E83AF83B887C1C01D
:1010200020E030E0A9016D857E858F8598890E943A
:10103000525188237CF48D859E85AF85B889BC018B
:10104000CD010E943F51DC01CB0189839A83AB83A0
:10105000BC830EC08D859E85AF85B889BC01CD014E
:101060000E94FE51DC01CB0189839A83AB83BC8350
:1010700020E030E0A9016D857E858F8598890E94EA
:101080005251882309F47BC029813A814B815C81CC
:101090006D857E858F8598890E945251882309F439
:1010A0006EC02D853E854F85588969857A858B85EB
:1010B0009C850E945951DC01CB01BF7789839A83BB
:1010C000AB83BC8320E030E040E05FE369817A815C
:1010D0008B819C810E94DB50DC01CB01BC01CD01E6
:1010E0000E94FE51DC01CB019C01AD0169817A8136
:1010F0008B819C810E94DA50DC01CB016C017D0167
:10110000E894F7F820E030E040E054E369817A8128
:101110008B819C810E945153DC01CB0111E09C0129
:10112000AD01C701B6010E944D5318160CF010E036
:1011300081E08127882381F020E030E0A9016985E2
:101140007A858B859C850E945153DC01CB018D8370
:101150009E83AF83B88725C02D853E854F855889EE
:1011600089859A85AB85BC85BC01CD010E9418524A
:10117000DC01CB018D839E83AF83B88712C02D85A0
:101180003E854F85588989859A85AB85BC85BC018C
:10119000CD010E941852DC01CB018D839E83AF8369
:1011A000B8878D819E81AF81B885BC01CD016096E5
:1011B0000FB6F894DEBF0FBECDBFDF91CF911F9168
:1011C000FF90EF90DF90CF9008958F929F92AF9213
:1011D000BF92CF92DF92EF92FF920F931F93CF9324
:1011E000DF93CDB7DEB764970FB6F894DEBF0FBEBE
:1011F000CDBF8091C5059091C605A091C705B0915E
:10120000C805892B8A2B8B2B09F459C082E192E007
:101210008D559F4FFC0180819181A281B381BC01DA
:10122000CD010E94C151DC01CB012FE632E143E840
:101230005AE3BC01CD010E945153DC01CB018983EB
:101240009A83AB83BC8320E030E040E251E46981C3
:101250007A818B819C810E945153DC01CB01BC01BE
:10126000CD010E94B453DC01CB018093BB05909368
:10127000BC05A093BD05B093BE0520E030E040E280
:1012800051E469817A818B819C810E945153DC01F8
:10129000CB01BC01CD010E945651DC01CB018093F2
:1012A000BF059093C005A093C105B093C2051092ED
:1012B000C5051092C6051092C7051092C80582E1B7
:1012C00092E08B549F4FFC0180819181FC018081D1
:1012D0009181A281B3812AE037ED43EA5BE3BC014F
:1012E000CD010E94DB50DC01CB012AE037ED43EA5F
:1012F0005CE3BC01CD0143DEDC01CB0120E030E04A
:1013000048E452E4BC01CD010E945153DC01CB0101
:10131000C12CD12C76016894C1F809EC15E022E4C7
:1013200031E04EE451E0BC01CD01DBDBDC01CB015F
:1013300089839A83AB83BC838091BB059091BC0564
:10134000A091BD05B091BE0529EB3CEF4FE75FE3EF
:10135000BC01CD010E945153DC01CB016C017D0128
:101360008091BF059091C005A091C105B091C205C3
:1013700027E536ED43E25CEBBC01CD010E94515301
:10138000DC01CB019C01AD01C701B6010E94DB501D
:10139000DC01CB0129EB3CEF4FE75FE3BC01CD0162
:1013A0000E945153DC01CB016C017D018091BF058E
:1013B0009091C005A091C105B091C20529EB3CEF09
:1013C0004FE75FE3BC01CD010E945153DC01CB012B
:1013D0004C015D018091BB059091BC05A091BD05BC
:1013E000B091BE0527E536ED43E25CE3BC01CD01DB
:1013F0000E945153DC01CB019C01AD01C501B40138
:101400000E94DB50DC01CB0127E536ED43E25CE3D3
:10141000BC01CD010E945153DC01CB019C01AD0107
:10142000C701B6010E94DB50DC01CB016C017D01DC
:1014300020E030E040E85FE369817A818B819C8124
:101440000E94DA50DC01CB0111E09C01AD01C70123
:10145000B6010E944D5318160CF010E0812F8093B6
:10146000B2058091B205682F89E00E94B600809194
:10147000BB059091BC05A091BD05B091BE058D83C3
:101480009E83AF83B8878091BB059091BC05A091E6
:10149000BD05B091BE0529EB3CEF4FE75FE3BC0112
:1014A000CD010E945153DC01CB016C017D01809183
:1014B000BF059091C005A091C105B091C20527E577
:1014C00036ED43E25CE3BC01CD010E945153DC01E7
:1014D000CB019C01AD01C701B6010E94DB50DC01CC
:1014E000CB018093BB059093BC05A093BD05B09341
:1014F000BE058091BF059091C005A091C105B09136
:10150000C20529EB3CEF4FE75FE3BC01CD010E9430
:101510005153DC01CB016C017D0127E536ED43E23F
:101520005CE36D817E818F8198850E945153DC013F
:10153000CB019C01AD01C701B6010E94DA50DC016C
:10154000CB018093BF059093C005A093C105B093D4
:10155000C2051A86198682E192E08D559F4FFC01E3
:1015600080819181A281B3818B879C87AD87BE8763
:101570008B859C85AD85BE85AC01BD0181E090E089
:101580000E944F029A87898782E192E083559F4F9C
:10159000FC018081882381F5188A1F8682E192E010
:1015A00089559F4FFC012081318142815381DA01AD
:1015B000C901880F991FAA1FBB1F880F991FAA1F57
:1015C000BB1F820F931FA41FB51F880F991FAA1F4F
:1015D000BB1F0596A11DB11D898B9A8BAB8BBC8B54
:1015E00089899A89AB89BC89AC01BD0182E090E010
:1015F0000E944F02988B8F8722E132E0C901855605
:101600009F4FFC0180819181A281B3810196A11D30
:10161000B11DA90145565F4FFA0180839183A283D2
:10162000B383C90185569F4FFC0180819181A281BE
:10163000B381BC01CD010E94C1516B017C0182E1EB
:1016400092E081569F4FFC0180819181A281B381FC
:1016500022E132E02B543F4FF901008111819C01BE
:10166000AD01C701B6010E945153DC01CB01F80165
:1016700080839183A283B38322E132E0C9018D5537
:101680009F4FFC0180819181A281B3810196A11DB0
:10169000B11D2D553F4FF90180839183A283B38300
:1016A00082E192E083559F4FFC0180818823A1F461
:1016B00022E132E0C90189559F4FFC01808191816F
:1016C000A281B3810196A11DB11D29553F4FF9019A
:1016D00080839183A283B38330DC000064960FB6CD
:1016E000F894DEBF0FBECDBFDF91CF911F910F9158
:1016F000FF90EF90DF90CF90BF90AF909F908F9032
:101700000895CF93DF93CDB7DEB784E090E0D2D8D1
:1017100022E132E082E192E02E543F4FFC01378318
:10172000268322E132E082E192E02B543F4F805C3D
:101730009F4FFC013183208322E132E082E192E07D
:1017400021563F4FFC01358B248B22E132E082E1B0
:1017500092E086599F4FFC013183208382E192E021
:1017600022E132E0FC013583248382E192E0FC0136
:101770008681978121E030E0FC013183208382E182
:1017800092E08F579F4FFC01108282E192E08857D0
:101790009F4FFC01108282E192E02DE231E0FC01DA
:1017A0003387228722E132E082E192E029543F4FE1
:1017B0008B549F4FFC013183208382E192E09C0196
:1017C00022553F4F80E090E0A0E0B0E4F901808333
:1017D0009183A283B38382E192E09C0121563F4F23
:1017E0008FE692E1A3E8BAE3F90180839183A283B3
:1017F000B38382E192E083559F4F25E0FC01208373
:1018000082E192E09C0127573F4F81E69AE0A1ECEC
:10181000B0E7F90180839183A283B38382E192E0F0
:101820009C0123573F4F8EEB96E9A4EFBFEBF901E4
:1018300080839183A283B38382E192E09C012F563F
:101840003F4F8FE192E4ABE7B8EFF90180839183DA
:10185000A283B38382E192E09C012B563F4F89EE35
:101860009CE5ACE1BFE4F90180839183A283B3835B
:1018700082E192E025ED32E0FC013383228381EEA8
:1018800092E09093D6028093D50281E491E0909308
:10189000E2028093E10281E491E09093E40280937C
:1018A000E30222E132E082E192E0FC018281938155
:1018B00027563F4FFC013583248322E132E082E149
:1018C00092E0FC018281938127573F4FFC013383D3
:1018D000228382E192E0FC012281338180ED97E056
:1018E000A0E0B0E0F90180879187A287B3871092CA
:1018F000B30581E090E0A0E0B0E08093B405909360
:10190000B505A093B605B093B70561E089E00E94E4
:10191000950081E08093B80581E090E0A0E0B0E020
:101920008093C5059093C605A093C705B093C805DD
:101930000000DF91CF910895CF93DF93CDB7DEB74D
:101940008091B305882319F481E08093B3050000EA
:10195000DF91CF9108950F931F93CF93DF93CDB76E
:10196000DEB72A970FB6F894DEBF0FBECDBF9A83BD
:1019700089834B835C836D837E830F8318872987DC
:101980003A8729813A818B819C81AD81BE81F901A1
:1019900080839183A283B38389819A819C012C5F88
:1019A0003F4F8F819885A985BA85F90180839183FE
:1019B000A283B38300002A960FB6F894DEBF0FBE51
:1019C000CDBFDF91CF911F910F910895EF92FF92BC
:1019D0000F931F93CF93DF93CDB7DEB76A970FB600
:1019E000F894DEBF0FBECDBF6D8B7E8B8F8B988F33
:1019F0005A8F498F19821A821B821C82F894898D12
:101A00009A8D019709F00BC180910A0390910B0305
:101A1000A0910C03B0910D032D893E894F89588DFB
:101A2000281739074A075B07C8F080910A0390918D
:101A30000B03A0910C03B0910D032D893E894F89B2
:101A4000588D79018A01E81AF90A0A0B1B0BD80193
:101A5000C7018D839E83AF83B88718C080910A0326
:101A600090910B03A0910C03B0910D032D893E8939
:101A70004F89588D79018A01E81AF90A0A0B1B0B64
:101A8000D801C7018D839E83AF83B88780910E03F1
:101A900090910F03A0911003B09111032D813E810D
:101AA0004F815885820F931FA41FB51F898B9A8B76
:101AB000AB8BBC8B80910E0390910F03A091100310
:101AC000B091110329893A894B895C892817390714
:101AD0004A075B0798F48091120390911303A09139
:101AE0001403B09115030196A11DB11D809312033B
:101AF00090931303A0931403B093150389899A89D3
:101B0000AB89BC8980930E0390930F03A0931003BD
:101B1000B0931103209112033091130340911403E9
:101B20005091150380910E0390910F03A091100323
:101B3000B091110389019A01AC01BD0182E093E0EB
:101B40000ADF8D899E89AF89B88D80930A039093AF
:101B50000B03A0930C03B0930D032D813E814F81A5
:101B6000588588EE93E0DC010E94EE5C9B01AC019D
:101B70008091160390911703A0911803B091190357
:101B8000820F931FA41FB51F809316039093170312
:101B9000A0931803B0931903809116039091170333
:101BA000A0911803B091190389839A83AB83BC83F6
:101BB0008091000190910101A0910201B091030177
:101BC0008F3F9F4FAF4FBF4F09F43CC18091000141
:101BD00090910101A0910201B09103018E3F9F4FAE
:101BE000AF4FBF4F09F42EC120910E0330910F0368
:101BF00040911003509111038091000190910101D7
:101C0000A0910201B091030161E0281739074A074A
:101C10005B0708F460E0862F8093FD0213C11986EC
:101C20001A861B861C861D861E861F86188A809132
:101C3000040190910501A0910601B09107018F3F29
:101C40009F4FAF4FBF4FE1F080910401909105018C
:101C5000A0910601B09107019C01AD012F5F3F4F9C
:101C60004F4F5F4F8D899E89AF89B88DBC01CD01E3
:101C70000E94C65CDC01CB018D8B9E8BAF8BB88F35
:101C800080910A0390910B03A0910C03B0910D0376
:101C90002D893E894F89588D281739074A075B07D8
:101CA00008F447C080910A0390910B03A0910C03A4
:101CB000B0910D032D893E894F89588D79018A0194
:101CC000E81AF90A0A0B1B0BD801C70189879A8702
:101CD000AB87BC8720910A0330910B0340910C0322
:101CE00050910D038D899E89AF89B88D79018A0144
:101CF000E81AF90A0A0B1B0BD801C7018D879E87CA
:101D0000AF87B88B2D853E854F85588989859A8503
:101D1000AB85BC8582179307A407B50728F0198601
:101D20001A861B861C864BC01D861E861F86188A37
:101D300046C080910A0390910B03A0910C03B091CF
:101D40000D032D893E894F89588D79018A01E81A42
:101D5000F90A0A0B1B0BD801C70189879A87AB8741
:101D6000BC8720910A0330910B0340910C035091E2
:101D70000D038D899E89AF89B88D79018A01E81A92
:101D8000F90A0A0B1B0BD801C7018D879E87AF8705
:101D9000B88B2D853E854F85588989859A85AB8579
:101DA000BC8582179307A407B50728F019861A8601
:101DB0001B861C8604C01D861E861F86188A898580
:101DC0009A85AB85BC85892B8A2B8B2BE1F02985E5
:101DD0003A854B855C8588EE93E0DC010E94EE5CE1
:101DE0009B01AC018091160390911703A0911803F9
:101DF000B0911903820F931FA41FB51F89839A8383
:101E0000AB83BC831FC0E0901603F09017030091D2
:101E10001803109119032D853E854F85588988EE4A
:101E200093E0DC010E94EE5CDC01CB01A80197018C
:101E3000281B390B4A0B5B0BDA01C90189839A8392
:101E4000AB83BC83789489819A81AB81BC81BC01CE
:101E5000CD016A960FB6F894DEBF0FBECDBFDF91FD
:101E6000CF911F910F91FF90EF900895CF93DF9343
:101E700000D000D000D0CDB7DEB769837A838B83E2
:101E80009C835E834D832D813E8189819A81AB81C4
:101E9000BC81A901BC01CD0199DDDC01CB01BC01F4
:101EA000CD0126960FB6F894DEBF0FBECDBFDF91F1
:101EB000CF910895CF93DF9300D000D000D0CDB75D
:101EC000DEB71C821B821E821D821A82198210922A
:101ED000FE021092FF0210920003109201039E0175
:101EE0002B5F3F4FCE010396B9010E94E14C2D813B
:101EF0003E818B819C81B9010E944F3A9A838983EC
:101F000089819A81892B19F089819A8113C09E0158
:101F10002B5F3F4FCE010396B9010E94054D2D81E5
:101F20003E818B819C81B9010E94E1189A8389834B
:101F300089819A8126960FB6F894DEBF0FBECDBF79
:101F4000DF91CF910895CF93DF9300D000D01F92FF
:101F5000CDB7DEB78D831A8219821B8260E070E0F4
:101F6000CB010E94C0541C820E941B3C9A8389832F
:101F700089819A81892B39F089819A81029619F099
:101F800081E08B830DC08C81882321F489819A8123
:101F9000029619F081E090E002C080E090E08C832E
:101FA0008B818823E1F40E9414199A8389838981A3
:101FB0009A81892B39F089819A81029619F081E002
:101FC0008B830DC08C81882321F489819A810296AC
:101FD00019F081E090E002C080E090E08C838B817A
:101FE0008823E1F40E94A43B9A83898389819A81A2
:101FF000892B39F089819A81029619F081E08B83CF
:102000000DC08C81882321F489819A81029619F070
:1020100081E090E002C080E090E08C838D81882395
:1020200091F060E070E0CB010E94C0548B81882366
:1020300019F48C81882319F481E090E002C080E0DB
:1020400090E08B8302C081E08B838B81882309F42D
:102050008ACF89819A810F900F900F900F900F90E7
:10206000DF91CF910895CF93DF93CDB7DEB7289757
:102070000FB6F894DEBF0FBECDBF18861F828091C9
:10208000FD02882329F060E070E0CB010E94621A13
:102090000E943F1A9E838D8319821A821B821C82A2
:1020A00018C06AE070E080E090E00E94C05489812E
:1020B0009A81AB81BC81805F984DAF4FBF4F8983C0
:1020C0009A83AB83BC8381E03EDF0E943F1A9E83EC
:1020D0008D8389819A81AB81BC8181159D42A14309
:1020E000B14020F48D819E81892BD9F60E944A1A35
:1020F00098878F830E94B63D98878F831092E50260
:102100001092E6021092E9021092EA021092EB029B
:102110001092EC021092ED021092EE021092EF0279
:102120001092F0021092F1021092F2021092F30259
:102130001092F4021092F5021092F6021092F70239
:102140001092F8021092F9021092FA021092FB0219
:102150001092FC028EEF9FEFAFEFBFEF8093000174
:1021600090930101A0930201B09303011092FD022C
:1021700048E050E060E070E082E093E00E94145D8F
:1021800010920A0310920B0310920C0310920D038D
:1021900010920E0310920F0310921003109211036D
:1021A000109212031092130310921403109215034D
:1021B000109216031092170310921803109219032D
:1021C0008F81988528960FB6F894DEBF0FBECDBFDD
:1021D000DF91CF910895CF93DF93CDB7DEB72897E6
:1021E0000FB6F894DEBF0FBECDBF80911C03909157
:1021F0001D03A0911E03B0911F039A8389838981D7
:102200009A81892B09F431C180912003882369F4D4
:1022100080911C0390911D03A0911E03B0911F0398
:10222000892B8A2B8B2B09F420C180913403909148
:102230003503029709F019C180913E03882309F004
:1022400014C189819A81FC0180819181A281B3812D
:102250008B839C83AD83BE8380913A03882309F4EA
:10226000F0C080912D0390912E03892B31F0809145
:102270002D0390912E03029719F481E090E002C0A3
:1022800080E090E08F8380912D0390912E03019741
:1022900031F080912D0390912E03029719F481E083
:1022A00090E002C080E090E088878F81882309F465
:1022B00062C08091210390912203A0912303B091E9
:1022C00024039C01AD016B817C818D819E810E94E4
:1022D0004D538823B4F08091360390913703A09139
:1022E0003803B091390320912103309122034091AA
:1022F000230350912403BC01CD010E945251882335
:1023000044F18091210390912203A0912303B09185
:1023100024039C01AD016B817C818D819E810E9493
:102320004D53181644F58091360390913703A091D0
:102330003803B09139032091210330912203409159
:10234000230350912403BC01CD010E9452518823E4
:1023500091F48091290390912A03A0912B03B091CD
:102360002C03892B8A2B8B2B19F481E080933D035E
:1023700081E080933E038885882309F462C08091C0
:10238000210390912203A0912303B09124039C0187
:10239000AD016B817C818D819E810E945251882389
:1023A000B4F48091360390913703A0913803B09133
:1023B000390320912103309122034091230350914E
:1023C0002403BC01CD010E944D53882344F5809124
:1023D000210390912203A0912303B09124039C0137
:1023E000AD016B817C818D819E810E945251882339
:1023F00041F58091360390913703A0913803B09155
:1024000039032091210330912203409123035091FD
:102410002403BC01CD010E944D53181694F4809101
:10242000290390912A03A0912B03B0912C03892BAF
:102430008A2B8B2B19F481E080933D0381E08093FC
:102440003E0390913E0381E0992309F080E0809360
:102450003A038B819C81AD81BE818093360390933A
:102460003703A0933803B0933903000028960FB6C2
:10247000F894DEBF0FBECDBFDF91CF910895CF930B
:10248000DF931F92CDB7DEB719828091340390910C
:102490003503892BC9F410922F0310923E038091CB
:1024A0000C01882371F182E090E0909335038093D2
:1024B000340310920C018091300390913103892BE9
:1024C00001F581E089831DC010920C0180912F03DA
:1024D000882349F010923D03109235031092340383
:1024E00010922F030EC08091300390913103892BFD
:1024F00019F481E0898305C080913E03898310929D
:102500003E03809134039091350382309105F9F0B8
:102510008330910530F4009761F0019709F44CC1C4
:10252000AEC18330910509F4EEC0049709F46AC086
:10253000A6C180910C01882309F4ACC182E090E02F
:10254000909335038093340310920C01A3C18981C9
:10255000882309F4A1C18091290390912A03A091B5
:102560002B03B0912C03181619061A061B06ECF45F
:1025700080913003909131030197B9F48091290340
:1025800090912A03A0912B03B0912C0380933F03D9
:1025900090934003A0934103B093420383E090E003
:1025A000909335038093340377C180910801909113
:1025B0000901A0910A01B0910B01892B8A2B8B2B69
:1025C000D1F081E080933D03809108019091090151
:1025D000A0910A01B0910B0180933F0390934003B7
:1025E000A0934103B093420384E090E090933503BD
:1025F0008093340351C110923D0310923503109221
:1026000034034AC180913F0390914003A09141035C
:10261000B0914203892B8A2B8B2B99F080913F0339
:1026200090914003A0914103B09142030197A10909
:10263000B10980933F0390934003A0934103B0936B
:10264000420380913F0390914003A0914103B091D8
:102650004203892B8A2B8B2B09F020C180913203F6
:1026600090913303019739F410923D031092350392
:102670001092340313C18091250390912603A091F9
:102680002703B0912803892B8A2B8B2BC9F010923A
:102690003D038091250390912603A0912703B091DB
:1026A000280380933F0390934003A0934103B0938A
:1026B000420381E090E09093350380933403EEC0B1
:1026C00089818823B9F08091080190910901A09136
:1026D0000A01B0910B0180933F0390934003A093B4
:1026E0004103B093420384E090E0909335038093DC
:1026F0003403D4C010923D0382E090E09093350300
:1027000080933403CBC080913F0390914003A0910C
:102710004103B0914203892B8A2B8B2B99F0809136
:102720003F0390914003A0914103B0914203019770
:10273000A109B10980933F0390934003A093410303
:10274000B093420380913F0390914003A0914103D5
:10275000B0914203892B8A2B8B2B09F0A1C0809169
:10276000080190910901A0910A01B0910B01892BF8
:102770008A2B8B2BD1F081E080933D03809108015F
:1027800090910901A0910A01B0910B0180933F0340
:1027900090934003A0934103B093420384E090E000
:1027A00090933503809334037BC010923D031092C5
:1027B00035031092340374C080913F03909140031D
:1027C000A0914103B0914203892B8A2B8B2B99F066
:1027D00080913F0390914003A0914103B091420347
:1027E0000197A109B10980933F0390934003A093FF
:1027F0004103B093420380913F0390914003A09125
:102800004103B0914203892B8A2B8B2B09F04AC0DC
:102810008981882369F18091080190910901A09133
:102820000A01B0910B01892B8A2B8B2BD1F081E00F
:1028300080933D038091080190910901A0910A01C4
:10284000B0910B0180933F0390934003A093410309
:10285000B093420384E090E0909335038093340377
:1028600021C010923D0310923503109234031AC018
:1028700082E090E0909335038093340313C010926C
:102880003D0310923E0310922F03109235031092D5
:10289000340309C0000007C0000005C0000003C0E9
:1028A000000001C0000000000F90DF91CF9108955B
:1028B000CF93DF93CDB7DEB7109236031092370374
:1028C000109238031092390310923A03809130032A
:1028D0009091310390933C0380933B0310923D030E
:1028E00010923E0310923F03109240031092410356
:1028F00010924203109235031092340380E090E06E
:10290000DF91CF910895CF93DF9300D01F92CDB781
:10291000DEB79B838A838A819B81019709F05BC024
:10292000209130033091310380913B0390913C031F
:1029300041E02817390709F440E0498380913003CA
:102940009091310390933C0380933B0389818823CA
:1029500081F010923D0310923E0310923F031092BB
:1029600040031092410310924203109235031092DB
:1029700034038091300390913103019761F5809188
:10298000340390913503892B21F480910C01882325
:1029900091F480913403909135030197E1F4809193
:1029A0003F0390914003A0914103B09142030197EE
:1029B000A105B10581F410923F03109240031092DB
:1029C00041031092420310920C0182E090E0909338
:1029D0003503809334038091300390913103019744
:1029E00051F480911A0390911B032A813B8128178F
:1029F000390709F4F0DB8A819B81019721F43FDDDF
:102A00001092440307C080914403882319F08091F9
:102A1000430302C080913D030F900F900F90DF9110
:102A2000CF910895CF93DF93CDB7DEB710923603E1
:102A300010923703109238031092390310923A0320
:102A4000109235031092340310923C0310923B0312
:102A500010921B0310921A0310923D0310923E0332
:102A600010923F03109240031092410310924203D0
:102A7000109243031092440310921C0310921D0302
:102A800010921E0310921F03109220031092210334
:102A900010922203109223031092240388EE93E0F5
:102AA000A0E0B0E08093080190930901A0930A018F
:102AB000B0930B0110922503109226031092270366
:102AC000109228031092290310922A0310922B03CC
:102AD00010922C0310922E0310922D0381E080930C
:102AE0000C0110922F0310923103109230031092B8
:102AF00033031092320380E090E0DF91CF9108958C
:102B0000CF93DF93CDB7DEB780913003909131033F
:102B1000892B01F580910C01882359F080912F03B6
:102B2000882339F481E08093430381E08093440358
:102B300011C080912F03882351F080910C018823CC
:102B400031F41092430381E08093440303C0109258
:102B5000440300C00000DF91CF910895CF93DF932D
:102B6000CDB7DEB72C970FB6F894DEBF0FBECDBF42
:102B70009E838D8378876F835A8749873C872B870D
:102B80001A8219820E94AB3D9C838B838D819E812A
:102B9000FC01808191810E948B408B859C8560E047
:102BA00070E00E94143D9C018F819885FC01318367
:102BB00020830E94FB3C9C0189859A85FC0131831E
:102BC00020838F819885FC0180819181892BE1F0A0
:102BD0008F819885FC01208131818B819C81B90195
:102BE0000E94E1449C018D819E81FC013183208300
:102BF0008D819E81FC0180819181892B49F486EF32
:102C00009FEF9A83898304C088EF9FEF9A8389831B
:102C100089819A812C960FB6F894DEBF0FBECDBF86
:102C2000DF91CF910895CF93DF9300D000D000D0F3
:102C3000CDB7DEB79A8389837C836B835E834D83B4
:102C400089819A81892B21F089819A810E948B4008
:102C50008D819E81FC011182108280E090E0269699
:102C60000FB6F894DEBF0FBECDBFDF91CF910895B0
:102C7000CF93DF9300D000D000D0CDB7DEB79A83DA
:102C800089837C836B835E834D838D819E8122E06B
:102C900030E0FC01318320838FEF9FEF26960FB643
:102CA000F894DEBF0FBECDBFDF91CF910895CF93D3
:102CB000DF9300D000D0CDB7DEB78B836C8385E087
:102CC00090E09A8389838B81813F18F01A82198260
:102CD00029C08B81843E40F08B81813F28F481E0C4
:102CE00090E09A8389831EC08B81833D18F08B818D
:102CF000833E48F08B81803C59F48C81882341F0DD
:102D00008C81833028F482E090E09A8389830AC022
:102D10008B81883C38F08B81833D20F483E090E008
:102D20009A83898389819A810F900F900F900F90D9
:102D3000DF91CF910895CF93DF93CDB7DEB767973B
:102D40000FB6F894DEBF0FBECDBF998B888B7B8BFF
:102D50006A8B5D8B4C8B3F8B2E8B888999899C83EA
:102D60008B838B819C81FC0180818D8319828D8175
:102D7000803C49F48A899B89029728F08B819C8149
:102D8000FC01818189838091460390914703892BBF
:102D900009F455C069818D818ADF9B878A871A82F1
:102DA0008A859B850597C1F18A859B85880F991F28
:102DB000845B9C4FFC01808191819D878C871F865D
:102DC0001E868C859D85892B39F18D81882F90E019
:102DD0002C853D85F90109959F878E8721E08E8599
:102DE0009F85892B09F420E02A838A818823A1F01A
:102DF0008E859F85FC01228133818C899D89FC0110
:102E0000318320838E859F85FC01248135818E89C5
:102E10009F89FC01318320838A81882309F053C074
:102E20008C899D8928E336E1FC01318320838E89DA
:102E30009F892BEC37E1FC013183208344C08D81D5
:102E40008F3FA9F580914C0390914D039F838E8312
:102E50008C899D89FC01118210828E899F89FC01D9
:102E6000118210828E819F81892B69F12E813F8191
:102E70008FEF90E0F9010995998788878885998572
:102E8000892B09F188859985FC01228133818C8900
:102E90009D89FC013183208388859985FC012481EB
:102EA00035818E899F89FC01318320830CC08C89F8
:102EB0009D8923E136E1FC01318320838E899F893E
:102EC000FC0111821082000067960FB6F894DEBFF5
:102ED0000FBECDBFDF91CF910895CF93DF93CDB7D4
:102EE000DEB78091460390914703DF91CF9108951B
:102EF000CF93DF9300D0CDB7DEB79A8389838981E2
:102F00009A81909347038093460300000F900F909F
:102F1000DF91CF910895CF93DF93CDB7DEB7809146
:102F20004803DF91CF910895CF93DF931F92CDB7E0
:102F3000DEB78983909148038981892B8093480368
:102F400000000F90DF91CF910895CF93DF931F92F0
:102F5000CDB7DEB789838981809590914803892315
:102F60008093480300000F90DF91CF910895CF9395
:102F7000DF93CDB7DEB780914903DF91CF910895FC
:102F8000CF93DF93CDB7DEB780914A0390914B0387
:102F9000DF91CF910895CF93DF93CDB7DEB72A9716
:102FA0000FB6F894DEBF0FBECDBF9E838D837887AA
:102FB0006F835A8749878D819E81892B51F48F8138
:102FC00098859C838B838B819C812FEFFC012083D0
:102FD00092C08F8198859A83898389819A812EEF07
:102FE000FC0120838D819E81092E000CAA0BBB0B56
:102FF0004096A11DB11D80319105A105B10508F0D4
:1030000074C08A5F974EFC010C94E85C6F186918D5
:1030100063185D185718511845184B183F18391880
:1030200033182E181C1816182218281889819A810E
:1030300020E3FC0121835FC089819A8129E2FC01A0
:10304000218359C089819A8122E2FC01218353C0E6
:1030500089819A8120E2FC0121834DC089819A8176
:10306000FC01118248C089819A8123E2FC012183FD
:1030700042C089819A8121E2FC0121833CC089817F
:103080009A8121E1FC01218336C089819A8127E25E
:10309000FC01218330C089819A812AE2FC012183CD
:1030A0002AC089819A8120E1FC01218324C0898181
:1030B0009A8124E2FC0121831EC089819A8128E241
:1030C000FC01218318C089819A8126E2FC012183B9
:1030D00012C089819A8121E3FC0121830CC089817E
:1030E0009A8123E3FC01218306C089819A8120E231
:1030F000FC01218300C000002A960FB6F894DEBFC1
:103100000FBECDBFDF91CF910895CF93DF93CDB7A1
:10311000DEB72A970FB6F894DEBF0FBECDBF9E83F1
:103120008D8378876F835A8749871A8219828F81A6
:103130009885892BD9F11C821B821C821B822BC093
:103140002B813C81C901880F991F820F931F880F23
:10315000991F9C018F819885820F931FFC018081AC
:1031600091812D813E812817390781F42B813C8183
:10317000C901880F991F820F931F880F991F9C0107
:103180008F819885820F931F9A8389838B819C817D
:1031900001969C838B832B813C8189859A85281796
:1031A000390720F489819A81892B51F289819A818A
:1031B0002A960FB6F894DEBF0FBECDBFDF91CF9138
:1031C0000895CF93DF9300D000D0CDB7DEB79A83B8
:1031D00089837C836B8380914503882319F084EF76
:1031E0009FEF1BC052D55DD590934D0380934C0348
:1031F0000E9403300E941B30909351038093500330
:103200000E94ED380E94F83890934F0380934E034C
:1032100081E08093450380E090E00F900F900F9045
:103220000F90DF91CF910895EF92FF920F931F932C
:10323000CF93DF93CDB7DEB764970FB6F894DEBFB8
:103240000FBECDBF1A8219821C821B8218861F8274
:103250001A8619861C861B861E861D86188A1F865E
:103260001E821D821A8A198A1C8A1B8A8091450334
:10327000882319F487EF9FEFC3C0BE01635F7F4FC0
:103280009E01255F3F4FAE01475F5F4FCE0107961E
:103290008B01BC0180E090E00E94593C9A838983B5
:1032A00089819A81892B49F089819A81049629F034
:1032B00089819A81059609F096C08F819885892B1E
:1032C00059F02B853C858D859E85280F391F898572
:1032D0009A858217930728F488EF9FEF9A83898352
:1032E00085C02F8138858B859C85820F931F9E8397
:1032F0008D836D857E859E012D5E3F4FAE014F5EB5
:103300005F4F8D819E8117DD89899A89892B29F4E8
:1033100084EF9FEF9A83898369C029893A896B85F5
:103320007C858F819885AE01415F5F4FF9010995DA
:103330009C838B838B899C89892B09F451C08F8551
:103340009889892B09F44CC01A8219822D853E85F3
:103350008F8598892817390768F42F853889AE0139
:10336000455F5F4FBE01675F7F4FCE010796F6DB7B
:103370009A8389832D853E858D819E81A90160E098
:1033800070E00E94145D89819A81892B49F52F8113
:1033900038858B859C85820F931F9E838D832B8917
:1033A0003C894F8558896D817E818B819C81F90193
:1033B00009956F8578894B855C8529853A858F814C
:1033C00098857B018A01AC016FEF7FEF81E090E08F
:1033D0000E94FF3A9A83898389819A81892B29F4F3
:1033E00089819A810DC0000001C000008F819885FD
:1033F000892B21F08F8198850E948B4089819A8149
:1034000064960FB6F894DEBF0FBECDBFDF91CF91AB
:103410001F910F91FF90EF900895CF93DF93CDB759
:10342000DEB728970FB6F894DEBF0FBECDBF9C83E2
:103430008B834D835E836F8378871A821982809194
:103440004503882319F487EF9FEF10C08D819E817B
:10345000AF81B885EB81FC8120E0AC01BD01CF01DB
:103460000E9439339A83898389819A8128960FB67D
:10347000F894DEBF0FBECDBFDF91CF910895CF93FB
:10348000DF93CDB7DEB78091460390914703DF917C
:10349000CF910895CF93DF93CDB7DEB70E94163951
:1034A0000E946A371CD448E050E060E070E08CE491
:1034B00093E00E94145D1092450380E090E0DF915C
:1034C000CF910895CF93DF9300D000D000D0CDB737
:1034D000DEB76B837C838D839E838B819C81AD81E2
:1034E000BE81BC01CD010E94F7339A838983898113
:1034F0009A8126960FB6F894DEBF0FBECDBFDF913E
:10350000CF910895CF93DF9300D000D01F92CDB715
:10351000DEB79D838C8381E089838C819D812981A5
:1035200040E050E0BA010E9439339B838A838A814C
:103530009B810F900F900F900F900F90DF91CF9184
:103540000895CF93DF9300D000D01F92CDB7DEB7A0
:103550008D8381E090E09A8389830E946D3D9C83F6
:103560008B838D81282F30E08B819C8149815A810A
:10357000BA010E94B25CCB0141E02817390708F07C
:1035800040E0842F0F900F900F900F900F90DF91DD
:10359000CF910895CF93DF9300D000D01F92CDB785
:1035A000DEB79C838B836D83A6D39A8389838091B6
:1035B0005903482F50E029813A818B819C81B901C0
:1035C0000E940B5D00000F900F900F900F900F90D6
:1035D000DF91CF910895CF93DF93CDB7DEB72D97CD
:1035E0000FB6F894DEBF0FBECDBF998788877B8763
:1035F0006A875D874C871A821982288539858A8572
:103600009B85820F931F9C838B838B819C819E83E0
:103610008D831F820E9415368F838F81882351F4FA
:103620008C859D8522E030E0FC013183208385EF8D
:103630009FEF2DC08D819E81FC018181882331F017
:103640008D819E81FC018181813019F481E090E0BF
:1036500002C080E090E08F838F81882351F48C85B5
:103660009D8522E030E0FC01318320838EEF9FEFC7
:103670000EC081E090E03CDC1A8219828C859D8529
:1036800028E030E0FC013183208389819A812D96E6
:103690000FB6F894DEBF0FBECDBFDF91CF91089576
:1036A000CF93DF93CDB7DEB728970FB6F894DEBF80
:1036B0000FBECDBF9C838B837E836D8358874F83E2
:1036C0008B819C81892BA9F58D819E819A83898329
:1036D00089819A8148E050E060E070E00E94145DCA
:1036E00089819A812FEFFC01208325E089819A81CD
:1036F000FC01218320E089819A81FC0122830E94C0
:103700006D3D282F89819A81FC0123830E94643DAD
:103710009C0189819A81FC013583248389819A8166
:1037200021E0FC01268389819A8121E0FC01278325
:1037300008C04F8158852D813E818B819C81B901C4
:103740002ADC000028960FB6F894DEBF0FBECDBF6E
:10375000DF91CF910895CF93DF9300D000D000D0B8
:103760001F92CDB7DEB79B838A837D836C835F8393
:103770004E8381E089830E9415368983898188235D
:1037800051F48E819F8122E030E0FC01318320835F
:1037900085EF9FEF0CC080E090E0AADB8E819F81D7
:1037A00021E030E0FC013183208380E090E0279627
:1037B0000FB6F894DEBF0FBECDBFDF91CF91089555
:1037C000CF93DF9300D000D000D0CDB7DEB79A837F
:1037D00089837C836B835E834D838D819E8126E00C
:1037E00030E0FC013183208380E090E026960FB624
:1037F000F894DEBF0FBECDBFDF91CF910895CF9378
:10380000DF93CDB7DEB728970FB6F894DEBF0FBEB3
:10381000CDBF9C838B837E836D8358874F838D813F
:103820009E819A83898389819A8146E050E060E095
:1038300070E00E94145D89819A812FEFFC01208342
:103840006ADB282F89819A81FC01218390DB282F54
:1038500089819A81FC01228393DB9C0189819A8171
:10386000FC0135832483000028960FB6F894DEBF50
:103870000FBECDBFDF91CF910895CF93DF9300D0DE
:1038800000D000D01F92CDB7DEB79B838A837D83A3
:103890006C835F834E8319820E94F8358983898106
:1038A000882321F00E94913D0E9409368E819F81DC
:1038B00022E030E0FC01318320838BEF9FEF2796DD
:1038C0000FB6F894DEBF0FBECDBFDF91CF91089544
:1038D000CF93DF93CDB7DEB72D970FB6F894DEBF49
:1038E0000FBECDBF998788877B876A875D874C87A6
:1038F0001A821982288539858A859B85820F931FB4
:103900009C838B838B819C819E838D831F828D8181
:103910009E81FC0123818D819E81FC0184819581A2
:10392000A681B781422FBC01CD01F4D18F838F8155
:10393000882351F48C859D8522E030E0FC013183A1
:10394000208384EF9FEF09C08C859D8521E030E0C6
:10395000FC013183208389819A812D960FB6F894DA
:10396000DEBF0FBECDBFDF91CF910895CF93DF9320
:10397000CDB7DEB72F970FB6F894DEBF0FBECDBF21
:103980009B878A877D876C875F874E871A8219821B
:103990002A853B858C859D85820F931F9C838B8315
:1039A0008B819C819E838D831F82A5D19987888777
:1039B0008D819E81FC018181C4DD8F838F8188236D
:1039C00051F48E859F8522E030E0FC013183208315
:1039D0008EEF9FEF22C088859985892B51F48E85C3
:1039E0009F8522E030E0FC013183208384EF9FEF4C
:1039F00014C08D819E81FC01818180935903809147
:103A00005903882F90E09C012F5F3F4F8E859F8543
:103A1000FC013183208389819A812F960FB6F89417
:103A2000DEBF0FBECDBFDF91CF910895CF93DF935F
:103A3000CDB7DEB72D970FB6F894DEBF0FBECDBF62
:103A4000998788877B876A875D874C878885998572
:103A5000892B91F550D19A8389838A859B859C8394
:103A60008B838B819C8141E050E060E070E00E949C
:103A7000145D8B819C812FEFFC01208389819A81C9
:103A8000892B11F180915903882F90E001962C85A4
:103A90003D8528173907C1F48A859B8501969E8349
:103AA0008D831F828D819E816F8174DD809159038A
:103AB00062D11092590308C04C855D852A853B85EB
:103AC00088859985B90167DA00002D960FB6F894BC
:103AD000DEBF0FBECDBFDF91CF910895CF93DF93AF
:103AE000CDB7DEB72D970FB6F894DEBF0FBECDBFB2
:103AF000998788877B876A875D874C871A821982B6
:103B0000288539858A859B85820F931F9C838B83AB
:103B10008B819C819E838D831F828D819E81FC0180
:103B200081810FDD8F838F81882351F48C859D8562
:103B300022E030E0FC01318320838EEF9FEF31C023
:103B40008D819E81FC0123818D819E81FC01848178
:103B50009581A681B781422FBC01CD01DBD08F8337
:103B60008F81882351F48C859D8522E030E0FC0113
:103B70003183208384EF9FEF14C08D819E81FC01EF
:103B800081818093590380915903882F90E09C0193
:103B90002F5F3F4F8C859D85FC0131832083898178
:103BA0009A812D960FB6F894DEBF0FBECDBFDF9180
:103BB000CF910895CF93DF93CDB7DEB72D970FB692
:103BC000F894DEBF0FBECDBF998788877B876A8751
:103BD0005D874C8788859985892B91F58CD09A8350
:103BE00089838A859B859C838B838B819C8141E023
:103BF00050E060E070E00E94145D8B819C812FEFAB
:103C0000FC01208389819A81892B11F180915903CC
:103C1000882F90E001962C853D8528173907C1F43F
:103C20008A859B8501969E838D831F828D819E81CF
:103C30006F81B0DC809159039ED01092590308C067
:103C40004C855D852A853B8588859985B901A3D9F1
:103C500000002D960FB6F894DEBF0FBECDBFDF91EA
:103C6000CF910895CF93DF9300D0CDB7DEB79A837D
:103C7000898389819A8147E050E06AE571E045DAFD
:103C80000F900F90DF91CF910895CF93DF93CDB731
:103C9000DEB782E39EE110D092D00000DF91CF9199
:103CA0000895CF93DF93CDB7DEB780915A039091FB
:103CB0005B03DF91CF910895CF93DF9300D0CDB711
:103CC000DEB79A83898389819A8190935B0380937D
:103CD0005A0300000F900F90DF91CF910895CF937A
:103CE000DF93CDB7DEB773D080E090E0E5DF000072
:103CF000DF91CF910895CF93DF93CDB7DEB7809159
:103D0000540390915503A0915603B0915703DF914E
:103D1000CF910895CF93DF9300D000D01F92CDB7FD
:103D2000DEB769837A838B839C834D838D8188235F
:103D300051F489819A81AB81BC81892B8A2B8B2B91
:103D400011F480E010C089819A81AB81BC8180939D
:103D5000540390935503A0935603B09357038D815A
:103D60008093580381E00F900F900F900F900F9069
:103D7000DF91CF910895CF93DF931F92CDB7DEB738
:103D800089832091540330915503409156035091FB
:103D900057038981882F90E0A0E0B0E0820F931F45
:103DA000A41FB51F8093540390935503A09356030B
:103DB000B093570300000F90DF91CF910895CF93F8
:103DC000DF93CDB7DEB70000DF91CF910895CF9399
:103DD000DF93CDB7DEB70000DF91CF910895CF9389
:103DE000DF9300D01F92CDB7DEB79B838A83198201
:103DF000F894809162039091630321E0892B09F08C
:103E000020E029838981882309F4789489810F909F
:103E10000F900F90DF91CF910895CF93DF9300D053
:103E2000CDB7DEB79A838983789400000F900F9006
:103E3000DF91CF910895CF93DF9300D0CDB7DEB758
:103E40009A838983F8948091620390916303019629
:103E50009093630380936203789400000F900F9017
:103E6000DF91CF910895CF93DF9300D0CDB7DEB728
:103E70009A838983F89480916203909163030197F8
:103E80009093630380936203789400000F900F90E7
:103E9000DF91CF910895CF93DF9300D0CDB7DEB7F8
:103EA0009A83898320915C0330915D0349815A8113
:103EB00063E1649FC001659F900D1124820F931FE1
:103EC000FC0183819481029799F020915C033091E9
:103ED0005D0349815A8163E1649FC001659F900D34
:103EE0001124820F931FFC0183819481039719F49D
:103EF00081E090E002C080E090E00F900F90DF91B1
:103F0000CF910895CF93DF9300D01F92CDB7DEB746
:103F100019821B821A821B821A8209C08A819B81A4
:103F2000BADF89838A819B8101969B838A838091F2
:103F30005E0390915F032A813B812817390718F4AB
:103F40008981882359F381E09981992309F080E0E0
:103F50000F900F900F90DF91CF910895CF93DF9343
:103F600000D000D01F92CDB7DEB79B838A836C83CD
:103F70004D8380915C0390915D03892B09F477C098
:103F800080915E0390915F032A813B812817390756
:103F900008F06DC020915C0330915D034A815B8124
:103FA00063E1649FC001659F900D1124820F931FF0
:103FB000FC0180819181892B09F459C020915C0317
:103FC00030915D034A815B8163E1649FC001659F1D
:103FD000900D1124820F931FFC0182819C81981700
:103FE00008F045C020915C0330915D034A815B81FC
:103FF00063E1649FC001659F900D1124820F931FA0
:10400000FC01208131818C81482F50E06DE0649F5C
:10401000C001659F900D1124820F931FFC018081C8
:104020009181892B21F120915C0330915D034A81BC
:104030005B8163E1649FC001659F900D1124820F35
:10404000931FFC01208131818C81482F50E06DE06D
:10405000649FC001659F900D1124820F931FFC0186
:1040600082819D81981718F481E090E002C080E081
:1040700090E0898389810F900F900F900F900F909F
:10408000DF91CF910895CF93DF93CDB7DEB7299716
:104090000FB6F894DEBF0FBECDBF8C836D832E8329
:1040A0003F834887598719828D81882F90E09B83B1
:1040B0008A838C818F3F41F48A819B818F3F910558
:1040C00009F010F481E08983898129960FB6F8946C
:1040D000DEBF0FBECDBFDF91CF910895CF93DF93A9
:1040E0001F92CDB7DEB789838981882F90E08F7EBC
:1040F00021E0892B09F020E0822F0F90DF91CF91F2
:104100000895CF93DF9300D0CDB7DEB78A831982AD
:104110008A81882331F08A81813019F08A81823046
:1041200011F481E0898389810F900F90DF91CF9105
:104130000895CF93DF9300D0CDB7DEB78A8319827D
:104140008A81882331F08A81813019F08A81823016
:1041500011F481E0898389810F900F90DF91CF91D5
:104160000895CF93DF93CDB7DEB781E0DF91CF9194
:104170000895CF93DF9300D01F92CDB7DEB79B8316
:104180008A8320915C0330915D034A815B8163E106
:10419000649FC001659F900D1124820F931FFC0145
:1041A00083858230D9F420915C0330915D034A818C
:1041B0005B8163E1649FC001659F900D1124820FB4
:1041C000931FFC0125813681809115019091160184
:1041D0002817390719F081E090E002C080E090E0F4
:1041E00089838981882339F08A819B81892B19F4FD
:1041F00081E090E002C080E090E0898389810F90A7
:104200000F900F90DF91CF910895CF93DF9300D05F
:1042100000D000D01F92CDB7DEB79E838D836F8311
:104220008D819E81FC01208131818F81482F50E05A
:104230006DE0649FC001659F900D1124820F931F54
:104240009C838B838B819C81FC01438154818D8174
:104250009E81FC0125853685429FC001439F900DBC
:10426000529F900D112401969A8389838F81882310
:1042700079F48D819E81FC018781882F90E0807187
:104280009927892B29F089819A8104969A838983B9
:1042900089819A8127960FB6F894DEBF0FBECDBFF5
:1042A000DF91CF910895CF93DF93CDB7DEB72B97F2
:1042B0000FB6F894DEBF0FBECDBF9B878A871D82E5
:1042C0001C821A8219821B821B821EC08A859B85D2
:1042D0006B819BDF9F838E83198618868E819F81D9
:1042E00061E070E00E94143D9987888728853985B0
:1042F00089819A818217930720F4888599859A830A
:1043000089838B818F5F8B838A859B85FC0182816A
:104310009B819817D8F28A859B85AC014F5E5F4FD1
:104320008A859B85FC018281882F90E09C01220F69
:10433000331F89819A81B9010E948A419D838C83B0
:104340008C819D81892B39F08A859B852FEF3FEFEA
:10435000FC01328B218B8C819D812B960FB6F894BA
:10436000DEBF0FBECDBFDF91CF910895CF93DF9316
:1043700000D0CDB7DEB79A83898389819A81FC0109
:1043800081899289019639F089819A81FC0181891C
:1043900092890E942C4389819A812FEF3FEFFC0183
:1043A000328B218B00000F900F90DF91CF910895F9
:1043B000CF93DF93CDB7DEB761970FB6F894DEBF2A
:1043C0000FBECDBF9D878C877F876E87598B488BAB
:1043D0001A8219822C853D858E859F85820F931FB9
:1043E0009C838B838B819C819E838D838D819E8119
:1043F000FC018281938198878F838D819E81FC014E
:10440000848189878D819E81FC0185818A871B86B5
:104410008F8198854A856985A1DD8B878B85882367
:1044200051F48889998922E030E0FC0131832083AE
:104430008EEF9FEF2BC08F8198852DDD982F81E027
:10444000992309F080E08B878B85882351F4888934
:10445000998922E030E0FC013183208388EF9FEFCF
:1044600015C08F81988590931201809311018985E1
:10447000809313018A85809314018889998921E0AA
:1044800030E0FC013183208389819A8161960FB6E7
:10449000F894DEBF0FBECDBFDF91CF910895CF93CB
:1044A000DF93CDB7DEB763970FB6F894DEBF0FBECC
:1044B000CDBF9F878E87798B688B5B8B4A8B1A82E7
:1044C00019822E853F8588899989820F931F9C8345
:1044D0008B838B819C819E838D8380911101909130
:1044E000120198878F83809113018987809114012D
:1044F0008A871C861B861D868F8198854A856985DB
:104500002DDD8D878D85882351F48A899B8922E052
:1045100030E0FC01318320838AEF9FEF9AC08F81C6
:104520009885B9DC982F81E0992309F080E08D8788
:104530008D85882351F48A899B8922E030E0FC0133
:104540003183208388EF9FEF84C08D819E81FC01A1
:1045500084819581A681B7812D813E81F901628197
:104560002D813E81F90171819C01AD01872F8BDD89
:104570008D878D85882351F48A899B8922E030E0DC
:10458000FC01318320838EEF9FEF63C020915C0399
:1045900030915D034F81588563E1649FC001659F41
:1045A000900D1124820F931FFC0120813181898598
:1045B000482F50E06DE0649FC001659F900D11246D
:1045C000820F931FFC01408151818A85282F30E0A2
:1045D000C901880F991F880F991F880F991F821B87
:1045E000930B840F951F9C878B878D819E81FC0187
:1045F00021818B859C85FC0120838D819E81FC011E
:1046000022818B859C85FC0121838D819E81FC010B
:1046100023818B859C85FC0122838D819E81FC01F9
:1046200084819581A681B7812B853C85F90183839F
:104630009483A583B683809114018F5F80931401C6
:104640008A899B8921E030E0FC01318320838981C4
:104650009A8163960FB6F894DEBF0FBECDBFDF918F
:10466000CF910895CF93DF93CDB7DEB72F970FB6D5
:10467000F894DEBF0FBECDBF9B878A877D876C878E
:104680005F874E871A8219822A853B858C859D8596
:10469000820F931F9C838B838B819C819E838D8350
:1046A00018861F82198680915C0390915D03892B87
:1046B00079F08D819E81FC012281338180915E039E
:1046C00090915F032817390718F481E090E002C049
:1046D00080E090E089878985882351F48E859F85C5
:1046E00022E030E0FC01318320838EEF9FEFA3C0F6
:1046F00020915C0330915D038D819E81FC0142819C
:10470000538163E1649FC001659F900D1124820F66
:10471000931F98878F838D819E81FC018281938175
:10472000BADB982F81E0992309F080E08987898599
:10473000882351F48E859F8522E030E0FC0131838F
:10474000208388EF9FEF77C08D819E81FC0184815B
:10475000958121E08038910508F020E0298789853E
:10476000882351F48E859F8522E030E0FC0131835F
:1047700020838EEF9FEF5FC08D819E81FC0197812A
:1047800081E0992309F080E089878985882351F4A5
:104790008E859F8522E030E0FC01318320838EEFFF
:1047A0009FEF49C08D819E81FC01818197DC8987C3
:1047B0008985882351F48E859F8522E030E0FC01B5
:1047C0003183208386EF9FEF36C08D819E81FC016F
:1047D00021818F819885FC0127838D819E81FC0139
:1047E000248135818F819885FC01368325838D81D5
:1047F0009E81FC0126818F819885FC0120878D8117
:104800009E81FC0127818F819885FC0121878F8102
:104810009885FC018085823028F48F81988521E07D
:10482000FC0120878E859F8521E030E0FC013183EB
:10483000208389819A812F960FB6F894DEBF0FBE30
:10484000CDBFDF91CF9108950F931F93CF93DF9347
:10485000CDB7DEB76C970FB6F894DEBF0FBECDBFF5
:10486000988F8F8B7A8F698F5C8F4B8F1B861A8600
:104870002F89388D898D9A8D820F931F9D878C8704
:104880008C859D859F878E87198A188A8E859F853E
:10489000FC0182819381CC01A0E0B0E08A8B9B8BEC
:1048A000AC8BBD8B19821E8A80915C0390915D0355
:1048B000892B99F080915E0390915F03CC01A0E079
:1048C000B0E02A893B894C895D89281739074A0756
:1048D0005B071CF481E090E002C080E090E08983F7
:1048E0008981882351F48B8D9C8D22E030E0FC017E
:1048F000318320838EEF9FEF40C28A899B89AC89E8
:10490000BD8980930D0190930E01A0930F01B09388
:10491000100120915C0330915D034A895B8963E15A
:10492000649FC001659F900D1124820F931F998B86
:10493000888B8E859F85FC018181E3DB898389815A
:10494000882351F48B8D9C8D22E030E0FC01318373
:10495000208386EF9FEF11C204DC882309F47DC019
:1049600088899989FC0183819481892B09F075C01C
:1049700088899989FC018781882F90E08270992726
:10498000892B81F188899989FC0180819181892B0A
:1049900091F080916103282F30E088899989FC018A
:1049A0008281882F90E0820F931F813891051CF43B
:1049B00081E090E002C080E090E0898389818823D3
:1049C00009F43EC02091610388899989FC012287FE
:1049D0002091610388899989FC018281820F8093EB
:1049E00061032EC088899989FC0180819181892B7E
:1049F00091F080916003282F30E088899989FC012B
:104A00008281882F90E0820F931F8D3F91051CF4C7
:104A100081E090E002C080E090E089838981882372
:104A200079F02091600388899989FC01228720917F
:104A3000600388899989FC018281820F80936003D9
:104A40008981882351F48B8D9C8D22E030E0FC011C
:104A50003183208387EF9FEF90C18E859F85FC0176
:104A60008181813039F08E859F85FC018181823082
:104A700009F0CBC01B821A8281E089831B821A82D3
:104A8000B5C01D821C821F821E821D821C822EC008
:104A900088899989FC01208131814A815B816DE09F
:104AA000649FC001659F900D1124820F931FFC012C
:104AB000408151812C813D81C901880F991F880F48
:104AC000991F880F991F821B930B840F951FFC0160
:104AD0008181882F90E02E813F81820F931F9F83D9
:104AE0008E838C819D8101969D838C838889998991
:104AF000FC01208131814A815B816DE0649FC001AE
:104B0000659F900D1124820F931FFC018281882FD5
:104B100090E02C813D81281739070CF4B9CF8A81A8
:104B20009B81892B21F588899989FC018781882FB0
:104B300090E080719927892BD1F088899989FC01AF
:104B4000458556852E813F81429FC001439F900D30
:104B5000529F900D11248C010B5F1F4F0E94643DEA
:104B600021E08017910708F420E0298319C0888983
:104B70009989FC01458556852E813F81429FC00160
:104B8000439F900D529F900D11248C010F5F1F4F7A
:104B90000E94643D21E08017910708F420E02983FA
:104BA0008981882351F48B8D9C8D22E030E0FC01BB
:104BB0003183208387EF9FEFE0C088899989FC01CA
:104BC000208131814A815B816DE0649FC001659FD6
:104BD000900D1124820F931F2E813F81FC0134839D
:104BE00023838A819B8101969B838A838889998903
:104BF000FC018281882F90E02A813B8128173907A8
:104C000024F48981882309F03CCF88899989FC01A3
:104C100085819681E4D88E8B8E89882309F49EC085
:104C2000198618868E859F85FC018181882F90E0EA
:104C300081309105D1F08230910509F469C0892B4A
:104C400009F071C08889998921E030E0FC01348342
:104C5000238358D9882309F463C081E090E00E943F
:104C6000781780E40E94A5175BC088899989FC01A8
:104C7000818992890196C9F588899989FC012581E4
:104C8000368180911501909116012817390799F402
:104C900088899989AC014F5E5F4F2091190130914D
:104CA0001A018091170190911801B9010E942544C1
:104CB000998788871AC08A899B89AC89BD8918160B
:104CC00019061A061B068CF088899989FC018581D2
:104CD0009681039750F488899989E5DA99878887BE
:104CE00088899989FC01108A178688859985892B7E
:104CF000C9F48889998923E030E0FC013483238357
:104D000082E090E00E94781780E40E9494170AC025
:104D10008889998922E030E0FC013483238303C031
:104D2000000001C0000088899989FC018581968175
:104D300074D88B8D9C8D22E030E0FC013183208380
:104D400088859985892B51F08B8D9C8D22E030E0F0
:104D5000FC01318320838DEF9FEF0FC08E89882364
:104D600051F48B8D9C8D22E030E0FC013183208357
:104D700085EF9FEF02C08A859B856C960FB6F894ED
:104D8000DEBF0FBECDBFDF91CF911F910F91089570
:104D9000CF93DF93CDB7DEB728970FB6F894DEBF79
:104DA0000FBECDBF9C838B837E836D8358874F83DB
:104DB0008B819C81892B29F58D819E819A838983A2
:104DC00089819A812FEFFC01208320915C0330912F
:104DD0005D0380910D0190910E01A0910F01B091A2
:104DE0001001AC0163E1649FC001659F900D112427
:104DF000820F931FFC01228589819A81FC01218306
:104E000009C04F8158852D813E818B819C81B901DC
:104E10000E94CB17000028960FB6F894DEBF0FBE95
:104E2000CDBFDF91CF910895CF93DF93CDB7DEB79C
:104E300066970FB6F894DEBF0FBECDBF9A8B898BF5
:104E40007C8B6B8B5E8B4D8B18861F8229893A89F0
:104E50008B899C89820F931F9A87898789859A8578
:104E60009C878B871D861E8619821A821B821C8254
:104E70008B859C85FC0181815CD98D878D858823FC
:104E800051F48D899E8922E030E0FC01318320833A
:104E900086EF9FEF20C280915C0390915D03892B88
:104EA00049F080915E0390915F03892B19F081E0B6
:104EB00090E002C080E090E08D878D85882351F4DA
:104EC0008D899E8922E030E0FC01318320838EEFC2
:104ED0009FEF01C20E94F8358E878E85882309F4E2
:104EE000EBC11E821D82188A1F868B859C85FC0162
:104EF0008181882F90E08130910509F456C082307D
:104F0000910509F46CC1892B09F0BFC119821A827D
:104F10001B821C8231C020915C0330915D0349816A
:104F20005A8163E1649FC001659F900D1124820F37
:104F3000931FFC0183819481892B99F020915C035C
:104F400030915D0349815A8163E1649FC001659F8F
:104F5000900D1124820F931F21E030E0FC01348377
:104F6000238389819A81AB81BC810196A11DB11DEA
:104F700089839A83AB83BC8380915E0390915F03A6
:104F8000CC01A0E0B0E029813A814B815C812817F7
:104F900039074A075B070CF4BECF81E090E00E941E
:104FA000781780E40E94A51770C119821A821B82AB
:104FB0001C82ACC020915C0330915D0349815A8111
:104FC00063E1649FC001659F900D1124820F931FC0
:104FD000FC0183819481029709F08DC020915C03CC
:104FE00030915D0349815A8163E1649FC001659FEF
:104FF000900D1124820F931FFC01818992890196E3
:1050000009F079C020915C0330915D0349815A8198
:1050100063E1649FC001659F900D1124820F931F6F
:10502000FC01258136818091150190911601281788
:105030003907F9F420915C0330915D0349815A816D
:1050400063E1649FC001659F900D1124820F931F3F
:10505000AC014F5E5F4F2091190130911A01809190
:10506000170190911801B9010E9425449E838D83F8
:1050700042C089819A81AB81BC81181619061A0633
:105080001B06CCF120915C0330915D0349815A816C
:1050900063E1649FC001659F900D1124820F931FEF
:1050A000FC0185819681039730F520915C03309156
:1050B0005D0349815A8163E1649FC001659F900D42
:1050C0001124820F931FEFD89E838D8320915C0360
:1050D00030915D0349815A8163E1649FC001659FFE
:1050E000900D1124820F931FFC01108A178689816D
:1050F0009A81988B8F8789819A81AB81BC81019637
:10510000A11DB11D89839A83AB83BC8380915E030B
:1051100090915F03CC01A0E0B0E029813A814B81FE
:105120005C81281739074A075B072CF48D819E8123
:10513000892B09F43FCF8D819E81892B09F0A2C074
:1051400019821A821B821C8238C020915C03309124
:105150005D0349815A8163E1649FC001659F900DA1
:105160001124820F931FFC01838194810297D1F453
:1051700020915C0330915D0349815A8163E1649F12
:10518000C001659F900D1124820F931F23E030E032
:10519000FC013483238382E090E00E94781780E44E
:1051A0000E94941789819A81AB81BC810196A11DCF
:1051B000B11D89839A83AB83BC8380915E039091F8
:1051C0005F03CC01A0E0B0E029813A814B815C8192
:1051D000281739074A075B070CF4B7CF53C0198269
:1051E0001A821B821C8231C020915C0330915D03C6
:1051F00049815A8163E1649FC001659F900D11242C
:10520000820F931FFC0183819481029799F420916E
:105210005C0330915D0349815A8163E1649FC00161
:10522000659F900D1124820F931F21E030E0FC0157
:105230003483238389819A81AB81BC810196A11D2E
:10524000B11D89839A83AB83BC8380915E03909167
:105250005F03CC01A0E0B0E029813A814B815C8101
:10526000281739074A075B070CF4BECF0E94821F3C
:10527000882351F081E090E00E94781780E40E943A
:10528000A51702C0000001C000000E9409368D81F0
:105290009E81892B51F08D899E8922E030E0FC01AE
:1052A000318320838DEF9FEF16C08D899E8921E089
:1052B00030E0FC01318320838E85882351F48D8971
:1052C0009E8922E030E0FC013183208385EF9FEF4F
:1052D00002C08F81988566960FB6F894DEBF0FBE28
:1052E000CDBFDF91CF910895CF93DF9300D000D051
:1052F00000D0CDB7DEB79A8389837C836B835E83CE
:105300004D838D819E8128E030E0FC013183208334
:1053100080E090E026960FB6F894DEBF0FBECDBFBA
:10532000DF91CF910895CF93DF93CDB7DEB7289764
:105330000FB6F894DEBF0FBECDBF9C838B837E83F8
:105340006D8358874F838D819E819A83898389815C
:105350009A8148E050E060E070E00E94145D89812D
:105360009A812FEFFC01208389819A8121E1FC0140
:10537000218389819A812FEF3FEFFC0133832283C0
:1053800089819A8120E830E0FC013583248389817A
:105390009A81FC01168289819A81FC0117820000A2
:1053A00028960FB6F894DEBF0FBECDBFDF91CF9128
:1053B0000895CF93DF9300D000D000D0CDB7DEB7F3
:1053C0009A8389837C836B835E834D838D819E81E9
:1053D00028E030E0FC013183208380E090E02696D5
:1053E0000FB6F894DEBF0FBECDBFDF91CF91089509
:1053F000CF93DF93CDB7DEB728970FB6F894DEBF13
:105400000FBECDBF9C838B837E836D8358874F8374
:105410008D819E819A83898389819A8148E050E0B9
:1054200060E070E00E94145D89819A812FEFFC0199
:10543000208389819A8121E0FC01218389819A81DD
:105440002FEFFC01228389819A8121E0FC012383D3
:1054500089819A812FEFFC01248389819A8124E339
:10546000FC01258389819A8121E030E0FC013783AA
:105470002683000028960FB6F894DEBF0FBECDBF7E
:10548000DF91CF910895CF93DF93CDB7DEB7299702
:105490000FB6F894DEBF0FBECDBF9D838C837F8394
:1054A0006E83598748871A8219821B820E9415369B
:1054B0008B838B81882351F48885998522E030E0A5
:1054C000FC013183208385EF9FEF0DC081E090E0E8
:1054D0000E9478178885998521E030E0FC013183AE
:1054E000208389819A8129960FB6F894DEBF0FBE7A
:1054F000CDBFDF91CF910895CF93DF93CDB7DEB7C6
:1055000065970FB6F894DEBF0FBECDBF998B888B21
:105510007B8B6A8B5D8B4C8B1C821B822889398923
:105520008A899B89820F931F9E838D838D819E81A3
:1055300098878F838F819885FC0182819381CC012C
:10554000A0E0B0E089879A87AB87BC871E861D865E
:105550001F861A82198280915C0390915D0321E07D
:10556000892B09F020E02F878F85882351F48C89BF
:105570009D8922E030E0FC01318320838CEF9FEF96
:10558000C9C089859A85AB85BC85181619061A0687
:105590001B065CF489859A85AB85BC850097A14084
:1055A000B1051CF481E090E002C080E090E08F87BC
:1055B0008F85882351F48C899D8922E030E0FC019D
:1055C000318320838EEF9FEFA5C089859A8543E1C3
:1055D000489F9001499F300D1124C9010E94E03F6E
:1055E0009E878D878D859E85892B51F48C899D8919
:1055F00022E030E0FC01318320838DEF9FEF8AC0F1
:1056000089859A8543E1489F9001499F300D112477
:105610008D859E85A90160E070E00E94145D8D85F6
:105620009E8590935D0380935C0389859A85909312
:105630005F0380935E031A82198253C029813A81E5
:1056400043E1429FC001439F900D11242D853E856B
:10565000820F931F2FEF3FEFFC01328B218B2981AB
:105660003A8143E1429FC001439F900D11242D8553
:105670003E85820F931FFC01138629813A8143E105
:10568000429FC001439F900D11242D853E85820FBE
:10569000931F21E0FC01248729813A8143E1429F45
:1056A000C001439F900D11242D853E85820F931FCD
:1056B00021E030E0FC013687258729813A8143E1EA
:1056C000429FC001439F900D11242D853E85820F7E
:1056D000931FFC01108A178689819A8101969A830B
:1056E000898389819A81092E000CAA0BBB0B29851D
:1056F0003A854B855C8582179307A407B5070CF4A0
:105700009DCF8C899D8921E030E0FC01318320838D
:105710008B819C8165960FB6F894DEBF0FBECDBF1E
:10572000DF91CF9108950F931F93CF93DF93CDB760
:10573000DEB760970FB6F894DEBF0FBECDBF9C8773
:105740008B877E876D87588B4F871A8219822B85AE
:105750003C858D859E85820F931F9C838B838B81D7
:105760009C819E838D838D819E81FC0182819381AA
:1057700098878F838D819E81FC01848189871A8619
:1057800080915C0390915D0321E0892B09F420E076
:105790002A878A85882351F48F85988922E030E012
:1057A000FC01318320838CEF9FEFC9C080915E03A1
:1057B00090915F0341E02F8138852817390708F061
:1057C00040E04A878A85882351F48F85988922E0B2
:1057D00030E0FC01318320838EEF9FEFB0C08985DC
:1057E000882331F089858D3F18F481E090E002C074
:1057F00080E090E08A878A85882351F48F85988994
:1058000022E030E0FC01318320838EEF9FEF97C0D0
:1058100020915C0330915D034F81588563E1649F63
:10582000C001659F900D1124820F931FFC018081A0
:10583000918121E0892B09F020E02A878A8588233D
:1058400051F48F85988922E030E0FC013183208378
:105850008CEF9FEF74C08985882F90E02DE0289F02
:10586000B001299F700D112420915C0330915D03DC
:105870004F815885E3E1E49FC001E59F900D11241D
:105880008901080F191FCB010E94E03FF8019183A5
:10589000808320915C0330915D034F81588563E1E3
:1058A000649FC001659F900D1124820F931FFC011E
:1058B00080819181892B51F48F85988922E030E095
:1058C000FC01318320838DEF9FEF39C08985882FBC
:1058D00090E02DE0289FB001299F700D11242091A8
:1058E0005C0330915D034F815885E3E1E49FC00183
:1058F000E59F900D1124820F931FFC0180819181FF
:10590000AB0160E070E00E94145D20915C03309177
:105910005D034F81588563E1649FC001659F900DD1
:105920001124820F931F2985FC0122838F8598897A
:1059300021E030E0FC013183208389819A816096E7
:105940000FB6F894DEBF0FBECDBFDF91CF911F9190
:105950000F9108950F931F93CF93DF93CDB7DEB7C9
:1059600061970FB6F894DEBF0FBECDBF9D878C87C1
:105970007F876E87598B488B1A8219822C853D85CB
:105980008E859F85820F931F9C838B838B819C8147
:105990009E838D838D819E81FC0182819381988776
:1059A0008F838D819E81FC01848189878D819E8179
:1059B000FC0185818A871B8680915C0390915D0341
:1059C00021E0892B09F420E02B878B85882351F473
:1059D0008889998922E030E0FC01318320838CEFB3
:1059E0009FEF57C180915E0390915F0341E02F814B
:1059F00038852817390708F040E04B878B858823C6
:105A000051F48889998922E030E0FC0131832083B8
:105A10008EEF9FEF3EC120915C0330915D034F817B
:105A2000588563E1649FC001659F900D1124820F2A
:105A3000931FFC018081918121E0892B09F420E0F2
:105A40002B878B85882351F48889998922E030E05F
:105A5000FC01318320838CEF9FEF1BC120915C03FD
:105A600030915D034F81588563E1649FC001659F5C
:105A7000900D1124820F931FFC01928181E02985F2
:105A8000291708F080E08B878B85882351F488895B
:105A9000998922E030E0FC01318320838EEF9FEF73
:105AA000F8C020915C0330915D034F81588563E11C
:105AB000649FC001659F900D1124820F931FFC010C
:105AC000208131818985482F50E06DE0649FC001BD
:105AD000659F900D1124820F931FFC01808191819D
