:100000006BC0000091C000008FC000008DC00000D8
:100010008BC0000089C0000087C0000085C00000C0
:1000200083C0000081C000007FC000007DC00000D0
:100030007BC0000079C0000077C0000075C00000E0
:100040000C94620C71C000000C94C6130C94F21353
:100050006BC0000069C0000067C0000065C0000000
:1000600063C0000061C0000005A84CCDB2D44EB9F9
:100070003836A9020C50B9918688083CA6AAAA2A4B
:10008000BE000000803F00000000240027002A007E
:1000900000000000250028002B00040404040404D0
:1000A0000404020202020202030303030303010227
:1000B00004081020408001020408102001020408F6
:1000C00010200000000800020100000304070000E7
:1000D000000000000000591411241FBECFEFD8E02B
:1000E000DEBFCDBF11E0A0E0B1E0EAECF9E202C072
:1000F00005900D92AA34B107D9F722E0AAE4B1E045
:1001000001C01D92AD32B207E1F710E0CCE6D0E0BD
:1001100004C02197FE010E94D914CB36D107C9F73C
:100120000E94F1080C94E3146BCFCF93DF9300D0BF
:10013000CDB7DEB789836A838A81882329F460E09A
:1001400089810E94C10D0CC08A81813029F461E04F
:1001500089810E94C10D04C062E089810E94C10DA5
:1001600000000F900F90DF91CF910895CF93DF9310
:1001700000D0CDB7DEB789836A838A81882329F0CE
:1001800061E089810E94EB0E04C060E089810E94D9
:10019000EB0E00000F900F90DF91CF910895CF9359
:1001A000DF93CDB7DEB72E970FB6F894DEBF0FBE44
:1001B000CDBF80E290E09E838D8319821A821B82DC
:1001C0001C828D819E81809741F42AD0DC01CB0175
:1001D00089839A83AB83BC8314C080E090E0A0EF56
:1001E000BFE78B879C87AD87BE871F8218861986DD
:1001F0001A868F819885A985BA8589839A83AB836E
:10020000BC8389819A81AB81BC81BC01CD012E96D2
:100210000FB6F894DEBF0FBECDBFDF91CF9108952A
:10022000CF93DF9300D000D0CDB7DEB780E090E071
:10023000A0E8BFE789839A83AB83BC8389819A81D5
:10024000AB81BC81BC01CD010F900F900F900F903E
:10025000DF91CF910895CF93DF93CDB7DEB72E977F
:100260000FB6F894DEBF0FBECDBF80E290E09E8354
:100270008D8319821A821B821C828D819E818097B8
:1002800041F42AD0DC01CB0189839A83AB83BC8300
:1002900014C080E090E0A0EFBFEF8B879C87AD8714
:1002A000BE871F82188619861A868F819885A98530
:1002B000BA8589839A83AB83BC8389819A81AB8118
:1002C000BC81BC01CD012E960FB6F894DEBF0FBEE7
:1002D000CDBFDF91CF910895CF93DF9300D000D0B1
:1002E000CDB7DEB780E090E0A0E8BFEF89839A83C6
:1002F000AB83BC8389819A81AB81BC81BC01CD0178
:100300000F900F900F900F90DF91CF910895CF93A2
:10031000DF93CDB7DEB72E970FB6F894DEBF0FBED2
:10032000CDBF80E290E09E838D8319821A821B826A
:100330001C828D819E81809741F42AD0DC01CB0103
:1003400089839A83AB83BC8314C080E090E0A8EFDC
:10035000BFEF8B879C87AD87BE871F821886198663
:100360001A868F819885A985BA8589839A83AB83FC
:10037000BC8389819A81AB81BC81BC01CD012E9661
:100380000FB6F894DEBF0FBECDBFDF91CF910895B9
:10039000CF93DF9300D000D0CDB7DEB719821A8299
:1003A0001B821C8280E090E0A0ECBFEF89839A83DF
:1003B000AB83BC8389819A81AB81BC81BC01CD01B7
:1003C0000F900F900F900F90DF91CF910895CF93E2
:1003D000DF9300D0CDB7DEB79A83898398DFDC0145
:1003E000CB0180930F0290931002A0931102B0935F
:1003F0001202CEDFDC01CB01809303029093040252
:10040000A0930502B0930602CADEDC01CB01809303
:100410000B0290930C02A0930D02B0930E0200DF2A
:10042000DC01CB018093070290930802A09309029C
:10043000B0930A0210DFDC01CB018093130290938A
:100440001402A0931502B093160246DFDC01CB0123
:100450008093170290931802A0931902B0931A0286
:1004600000000F900F90DF91CF910895CF93DF930D
:1004700000D000D0CDB7DEB769837A838B839C83AD
:1004800080910B0290910C02A0910D02B0910E028E
:100490009C01AD0169817A818B819C8178D7882309
:1004A00089F08091130290911402A0911502B091ED
:1004B00016029C01AD0169817A818B819C8167D78D
:1004C000882311F481E001C080E00F900F900F901D
:1004D0000F90DF91CF910895CF93DF93CDB7DEB723
:1004E0002F970FB6F894DEBF0FBECDBF6C877D8708
:1004F0008E879F87198280E290E09B838A838A811E
:100500009B81809749F48C859D85AE85BF85BC0114
:10051000CD0138D089832CC08C859D85AE85BF8563
:100520008C839D83AE83BF8388859985AA85BB858F
:1005300088279927A07FBF770097A04FBF47A9F4CE
:1005400088859985AA85BB85AF70BB27892B8A2BA7
:100550008B2B41F48C819D81AE81BF81892B8A2BAD
:100560008B2B19F081E090E002C080E090E089835D
:1005700089812F960FB6F894DEBF0FBECDBFDF91F5
:10058000CF910895CF93DF93CDB7DEB728970FB6FD
:10059000F894DEBF0FBECDBF6D837E838F839887B7
:1005A0008D819E81AF81B88589839A83AB83BC831B
:1005B00089819A81AB81BC8188279927A078BF77F0
:1005C0000097A048BF4769F489819A81AB81BC81BB
:1005D000AF77BB27892B8A2B8B2B19F081E090E01A
:1005E00002C080E090E028960FB6F894DEBF0FBE00
:1005F000CDBFDF91CF910895CF92DF92EF92FF921E
:100600000F931F93CF93DF93CDB7DEB7A6970FB6A7
:10061000F894DEBF0FBECDBF698F7A8F8B8F9C8F12
:100620005E8F4D8F38A32F8F1AA309A3CBA2DCA214
:10063000EDA2FEA28D8D9E8DFC0180819181A28113
:10064000B3819C01AD01698D7A8D8B8D9C8D9FD678
:100650001816B4F11D821E821F8218868D8D9E8D04
:10066000FC0180819181A281B3819C01AD01698DE2
:100670007A8D8B8D9C8D13D6DC01CB016C017D01B5
:100680008D8D9E8D0496FC0180819181A281B38124
:100690002D8D3E8DF9012081318142815381BC0134
:1006A000CD01FDD5DC01CB019C01AD01C701B60137
:1006B00072D6DC01CB0189839A83AB83BC835EC194
:1006C0008BA19CA1880F991F880F991F2D8D3E8D9E
:1006D000820F931FFC0180819181A281B3819C01D3
:1006E000AD01698D7A8D8B8D9C8D51D688230CF050
:1006F000EEC089A19AA1FC0180819181A281B38180
:100700008D839E83AF83B8871D861E861F86188AB9
:100710008BA19CA1ADA1BEA1898B9A8BAB8BBC8B0D
:1007200019861A861B861C867FC08D819E81880F44
:10073000991F880F991F2D8D3E8D820F931FFC01ED
:1007400080819181A281B3819C01AD01698D7A8DF7
:100750008B8D9C8D1CD688231CF58D819E81AF814D
:10076000B8850197A109B109898B9A8BAB8BBC8B9A
:100770002D813E814F8158858D859E85AF85B889B5
:10078000820F931FA41FB51F0197A109B109B69548
:10079000A795979587958D839E83AF83B88744C02F
:1007A0008D819E810196880F991F880F991F2D8D2D
:1007B0003E8D820F931FFC0180819181A281B381C4
:1007C0009C01AD01698D7A8D8B8D9C8DE0D5882340
:1007D0004CF481E090E0A0E0B0E089879A87AB8795
:1007E000BC8722C08D819E81AF81B8850196A11DF5
:1007F000B11D8D879E87AF87B88B2D813E814F813C
:10080000588589899A89AB89BC89820F931FA41F57
:10081000B51F0196A11DB11DB695A7959795879512
:100820008D839E83AF83B88789859A85AB85BC8588
:10083000892B8A2B8B2B09F478CF8D819E81880F91
:10084000991F880F991F2D8D3E8D820F931FFC01DC
:1008500080819181A281B3819C01AD01698D7A8DE6
:100860008B8D9C8D1CD5DC01CB016C017D018D81B4
:100870009E810196880F991F880F991F2D8D3E8D9F
:10088000820F931FFC0180819181A281B3812D8110
:100890003E81220F331F220F331F4D8D5E8D240F9B
:1008A000351FF9012081318142815381BC01CD0185
:1008B000F6D4DC01CB019C01AD01C701B6016BD5BB
:1008C000DC01CB0189839A83AB83BC8357C08BA1A6
:1008D0009CA1ADA1BEA10197A109B1098D839E8301
:1008E000AF83B8878BA19CA18150904C880F991F32
:1008F000880F991F2D8D3E8D820F931FFC018081E3
:100900009181A281B3819C01AD01698D7A8D8B8D1E
:100910009C8DC5D4DC01CB016C017D018BA19CA118
:10092000880F991F880F991F2D8D3E8D820F931F61
:10093000FC0180819181A281B3812BA13CA1215036
:10094000304C220F331F220F331F4D8D5E8D240F2D
:10095000351FF9012081318142815381BC01CD01D4
:100960009ED4DC01CB019C01AD01C701B60113D5BA
:10097000DC01CB0189839A83AB83BC8329A13AA193
:100980008D819E81AF81B885F90180839183A28397
:10099000B3838D819E81880F991F880F991F2F8D9A
:1009A00038A1820F931FFC0180819181A281B381C4
:1009B0008D8B9E8BAF8BB88F8D819E810196880F1A
:1009C000991F880F991F2F8D38A1820F931FFC014B
:1009D00080819181A281B3812D893E894F89588D73
:1009E000BC01CD015CD4DC01CB0129813A814B8172
:1009F0005C81BC01CD018ED6DC01CB012D893E8905
:100A00004F89588DBC01CD014BD4DC01CB01BC0119
:100A1000CD01A6960FB6F894DEBF0FBECDBFDF9115
:100A2000CF911F910F91FF90EF90DF90CF9008959D
:100A3000CF92DF92EF92FF921F93CF93DF93CDB7C8
:100A4000DEB760970FB6F894DEBF0FBECDBF6987E3
:100A50007A878B879C872D873E874F87588B898520
:100A60009A85AB85BC85BC01CD0136DD882391F428
:100A70008D859E85AF85B889BC01CD012DDD88238C
:100A800049F489859A85AB85BC85BC01CD01EEDC36
:100A9000882369F080910F0290911002A0911102B9
:100AA000B09112028D839E83AF83B887C5C08D85B8
:100AB0009E85AF85B889BC01CD01D8DC882349F07B
:100AC00089859A85AB85BC858D839E83AF83B887E6
:100AD000B3C020E030E0A9016D857E858F859889BF
:100AE00056D4882374F48D859E85AF85B889BC0162
:100AF000CD013AD4DC01CB0189839A83AB83BC83DB
:100B00000DC08D859E85AF85B889BC01CD01E8D427
:100B1000DC01CB0189839A83AB83BC8320E030E086
:100B2000A9016D857E858F85988931D4882309F444
:100B300072C029813A814B815C816D857E858F856C
:100B4000988925D4882309F466C02D853E854F8574
:100B5000588969857A858B859C851DD4DC01CB01FC
:100B6000BF7789839A83AB83BC8320E030E040E089
:100B70005FE369817A818B819C8192D3DC01CB0117
:100B8000BC01CD01ADD4DC01CB019C01AD0169817B
:100B90007A818B819C8183D3DC01CB016C017D0147
:100BA000E894F7F820E030E040E054E369817A818E
:100BB0008B819C81AFD5DC01CB0111E09C01AD01A3
:100BC000C701B601A3D518160CF010E081E081270B
:100BD000882379F020E030E0A90169857A858B854A
:100BE0009C8598D5DC01CB018D839E83AF83B8872C
:100BF00023C02D853E854F85588989859A85AB858B
:100C0000BC85BC01CD0186D4DC01CB018D839E83E4
:100C1000AF83B88711C02D853E854F85588989855A
:100C20009A85AB85BC85BC01CD0174D4DC01CB01B8
:100C30008D839E83AF83B8878D819E81AF81B88578
:100C4000BC01CD0160960FB6F894DEBF0FBECDBFDC
:100C5000DF91CF911F91FF90EF90DF90CF9008959B
:100C6000CF92DF92EF92FF920F931F93CF93DF9378
:100C700000D000D0CDB7DEB78AE491E0FC018281DC
:100C80009381A481B581BC01CD01EDD3DC01CB0101
:100C90002FE632E143E85AE3BC01CD013BD5DC014C
:100CA000CB012AE037ED43EA5BE3BC01CD01F8D28A
:100CB000DC01CB012AE037ED43EA5CE3BC01CD0166
:100CC000B7DEDC01CB0120E030E048E452E4BC01B7
:100CD000CD0120D5DC01CB01C12CD12C760168944B
:100CE000C1F807E212E022E031E04EE051E0BC0141
:100CF000CD0182DCDC01CB0189839A83AB83BC8389
:100D00008091230290912402A0912502B0912602A5
:100D1000BC01CD01AAD3DC01CB019C01AD01BC011A
:100D2000CD01BED2DC01CB012BED3FE049E450E424
:100D3000BC01CD01EFD4DC01CB0120E030E04AE77B
:100D400054E4BC01CD0127D3DC01CB01BC01CD01B2
:100D500044D56B017C0120E030E040E85FE369812D
:100D60007A818B819C819BD2DC01CB0111E09C01BB
:100D7000AD01C701B601CAD418160CF010E0812FDE
:100D8000682F89E0F3D98091230290912402A091E9
:100D90002502B09126020196A11DB11D8093230268
:100DA00090932402A0932502B093260280912302FF
:100DB00090912402A0912502B0912602883E934092
:100DC000A105B10541F41092230210922402109261
:100DD0002502109226022AE431E0F90182819381F2
:100DE000A481B5810196A11DB11DF9018283938370
:100DF000A483B58300000F900F900F900F90DF91A8
:100E0000CF911F910F91FF90EF90DF90CF900895B9
:100E1000CF93DF93CDB7DEB784E090E0D8DA1092BD
:100E20001B0281E090E0A0E0B0E080931C02909370
:100E30001D02A0931E02B0931F0261E089E075D9E4
:100E400081E0809320020000DF91CF910895CF933D
:100E5000DF93CDB7DEB780911B02882319F481E0C0
:100E600080931B020000DF91CF910895CF93DF9311
:100E7000CDB7DEB726E030E040E855E260E070E054
:100E800080E090E004D00000DF91CF910895CF93EF
:100E9000DF93CDB7DEB72A970FB6F894DEBF0FBE4B
:100EA000CDBF9C838B834D835E836F8378873A8726
:100EB0002987109251011092500189859A859A8351
:100EC00089838B819C81092E000CAA0BBB0B893076
:100ED0009105A105B10508F0D2C08E58984FFC01CC
:100EE0000C94D9147B079907AC07BF07D207E50715
:100EF000F8070A081B0880915001909151018170F8
:100F00009927892B09F0AAC0809150019091510135
:100F10008160909351018093500129818D819E8140
:100F2000AF81B885AC01BD0186E691E00E94F90F62
:100F3000A6C0809150019091510182709927892B10
:100F400009F08EC080915001909151018260909380
:100F500051018093500193C08091500190915101B3
:100F600084709927892B09F07DC080915001909160
:100F700051018460909351018093500180C0809111
:100F800050019091510188709927892B09F06CC00C
:100F9000809150019091510188609093510180930C
:100FA00050016DC08091500190915101807199273D
:100FB000892B09F05BC080915001909151018061B3
:100FC00090935101809350015AC0809150019091AB
:100FD000510180729927892B09F04AC080915001F4
:100FE000909151018062909351018093500147C0CC
:100FF000809150019091510180749927892BD1F5EE
:10100000809150019091510180649093510180939F
:10101000500135C0809150019091510180789927FD
:10102000892B51F5809150019091510180689093E6
:101030005101809350018091500190915101882776
:101040009170892BD9F48091500190915101916058
:101050009093510180935001000011C000000FC017
:1010600000000DC000000BC0000009C0000007C058
:10107000000005C0000003C0000001C000002A9667
:101080000FB6F894DEBF0FBECDBFDF91CF910895AC
:10109000CF93DF93CDB7DEB70000DF91CF910895F6
:1010A000EF92FF920F931F93CF93DF9300D000D066
:1010B0001F92CDB7DEB7198276D4DC01CB018093C5
:1010C000560190935701A0935801B0935901209174
:1010D000560130915701409158015091590180912A
:1010E000520190915301A0915401B09155017901A1
:1010F0008A01E81AF90A0A0B1B0BD801C701883EBE
:101100009340A105B10508F43CC08091560190912F
:101110005701A0915801B0915901809352019093C9
:101120005301A0935401B09355013AD03CD4DC0153
:10113000CB018A839B83AC83BD83809152019091C4
:101140005301A0915401B09155012A813B814C81FA
:101150005D8179018A01E81AF90A0A0B1B0BD80193
:10116000C701883E9340A105B10538F081E090E0C9
:1011700090935B0180935A0104C010925B0110921E
:101180005A0181E0898389810F900F900F900F9011
:101190000F90DF91CF911F910F91FF90EF900895E5
:1011A000CF93DF93CDB7DEB780915C0191E0980FCC
:1011B00090935C01882361F081E090E090935B0163
:1011C00080935A0180915C01815080935C0106C03C
:1011D00047DD80915C01815080935C01DF91CF916C
:1011E0000895CF93DF93CDB7DEB728970FB6F89465
:1011F000DEBF0FBECDBF8FE692E1A3E8BAE38983DD
:101200009A83AB83BC831D821E821F821886109234
:101210002C0210922B0226D429DE8091000190919D
:101220000101FC0111821082F3DDF89431DF80911D
:10123000000190910101FC018081918121E0892BC5
:1012400009F020E0822F80932B02789417C08091C0
:10125000000190910101FC018081918121E0892BA5
:1012600009F420E0822F80932C0290912C0281E0DF
:10127000992309F080E080932B0212DF80912B02EA
:10128000882329F7E4DDF89480E090E028960FB6F3
:10129000F894DEBF0FBECDBFDF91CF9108955058B7
:1012A000BB27AA270ED0E1C1D2D130F0D7D120F090
:1012B00031F49F3F11F41EF4C7C10EF4E095E7FB33
:1012C00094C1E92FE3D180F3BA176207730784074B
:1012D000950718F071F49EF512C20EF4E0950B2EEE
:1012E000BA2FA02D0B01B90190010C01CA01A00178
:1012F0001124FF27591B99F0593F50F4503E68F1D3
:101300001A16F040A22F232F342F4427585FF3CF13
:10131000469537952795A795F0405395C9F77EF4E4
:101320001F16BA0B620B730B840BBAF09150A1F02D
:10133000FF0FBB1F661F771F881FC2F70EC0BA0FB3
:10134000621F731F841F48F4879577956795B7953B
:10135000F7959E3F08F0B3CF9395880F08F0992733
:10136000EE0F979587950895B3D180F09F3740F49D
:1013700091110EF4C5C160E070E080E89FE308952C
:1013800026F01B16611D711D811D35C14FC109D18C
:1013900008F481E008950CD068C160D140F057D1C5
:1013A00030F021F45F3F19F020C15111A9C14CC1A7
:1013B0006DD198F39923C9F35523B1F3951B550BC0
:1013C000BB27AA2762177307840738F09F5F5F4F18
:1013D000220F331F441FAA1FA9F333D00E2E3AF059
:1013E000E0E830D091505040E695001CCAF729D073
:1013F000FE2F27D0660F771F881FBB1F26173707C2
:101400004807AB07B0E809F0BB0B802DBF01FF27F1
:1014100093585F4F2AF09E3F510568F0E6C070C1B7
:101420005F3FECF3983EDCF3869577956795B7952B
:10143000F7959F5FC9F7880F911D9695879597F946
:101440000895E1E0660F771F881FBB1F62177307BF
:101450008407BA0720F0621B730B840BBA0BEE1FD4
:1014600088F7E0950895E89409C097FB3EF49095BD
:101470008095709561957F4F8F4F9F4F9923A9F06D
:10148000F92F96E9BB279395F695879577956795FC
:10149000B795F111F8CFFAF4BB0F11F460FF1BC040
:1014A0006F5F7F4F8F4F9F4F16C0882311F096E9D3
:1014B00011C0772321F09EE8872F762F05C0662381
:1014C00071F096E8862F70E060E02AF09A95660F3A
:1014D000771F881FDAF7880F9695879597F90895F3
:1014E000F7D080F09F3740F491110EF009C160E011
:1014F00070E080E89FEB089526F41B16611D711DB6
:10150000811D79C093C0A3D018F011F0A7D038F492
:101510009BC0F6C0E92FBAD0B0F35523C9F3E7FB5F
:101520006217730784079507A8F199F3E92FFF273E
:1015300088232AF03197660F771F881FDAF7952FD7
:101540005527442332F091505040220F331F441F3F
:10155000D2F7BB27E91BF50B621B730B840BB10998
:10156000C1F222F4620F731F841FB11D31972AF05C
:10157000660F771F881FBB1FEFCF915050405AF066
:1015800041F0882332F0660F771F881F915050403A
:10159000C1F793954BC08695779567959F5FD9F76F
:1015A000F8CF990F0008550FAA0BE0E8FEEF1616CA
:1015B0001706E807F907C0F012161306E407F50747
:1015C00098F0621B730B840B950B39F40A2661F0BB
:1015D000232B242B252B21F408950A2609F4A1405E
:1015E000A6958FEF811D811D089597F99F6780E86B
:1015F00070E060E00895882371F4772321F098501B
:10160000872B762F07C0662311F499270DC09051C0
:10161000862B70E060E02AF09A95660F771F881F8E
:10162000DAF7880F9695879597F908959F3F31F0DF
:10163000915020F4879577956795B795880F911D00
:101640009695879597F908959FEF80EC089500246B
:101650000A941616170618060906089500240A9417
:1016600012161306140605060895092E0394000C9D
:1016700011F4882352F0BB0F40F4BF2B11F460FF2C
:1016800004C06F5F7F4F8F4F9F4F089557FD905855
:10169000440F551F59F05F3F71F04795880F97FB36
:1016A000991F61F09F3F79F08795089512161306F0
:1016B0001406551FF2CF4695F1DF08C0161617061F
:1016C0001806991FF1CF8695710561050894089554
:1016D000E5DFA0F0BEE7B91788F4BB279F3860F4B8
:1016E0001616B11D672F782F8827985FF7CF86953C
:1016F00077956795B11D93959639C8F30895E89449
:10170000BB2766277727CB0197F908954ADF08F4AE
:101710008FEF08950BD0A9CF9ADF28F09FDF18F044
:10172000952309F062CF90CF1124EACFAFDFA0F369
:10173000959FD1F3950F50E0551F629FF001729F66
:10174000BB27F00DB11D639FAA27F00DB11DAA1F85
:10175000649F6627B00DA11D661F829F2227B00DD2
:10176000A11D621F739FB00DA11D621F839FA00D5D
:10177000611D221F749F3327A00D611D231F849FAD
:10178000600D211D822F762F6A2F11249F57504004
:101790008AF0E1F088234AF0EE0FFF1FBB1F661F9F
:1017A000771F881F91505040A9F79E3F510570F058
:1017B0001CCFA6CF5F3FECF3983EDCF38695779580
:1017C0006795B795F795E7959F5FC1F7FE2B880F53
:1017D000911D9695879597F908959F9305D00F9041
:1017E00007FCEE5F28C030CF59DFE8F3E894E0E073
:1017F000BB279F57F0F02AED3FE049EC06C0EE0F03
:10180000BB0F661F771F881F28F0B23A6207730765
:10181000840728F0B25A620B730B840BE3959A95F8
:1018200072F7803830F49A95BB0F661F771F881FB8
:10183000D2F79048FDCEEF93E0FF06C0A2EA2AED72
:101840003FE049EC5FEB3DDD10DF0F90039401FCBE
:101850009058E8E6F0E000C09F938F937F936F93DA
:10186000FF93EF939B01AC0155DFEF91FF9105D002
:101870002F913F914F915F914DCFDF93CF931F9366
:101880000F93FF92EF92DF927B018C01689405C069
:10189000DA2EEF014BDFFE01E894A59125913591F9
:1018A00045915591AEF3EF010CDDFE019701A801C2
:1018B000DA9479F7DF90EF90FF900F911F91CF911D
:1018C000DF9108951F920F920FB60F9211248F93FC
:1018D0009F93AF93BF93CF93DF93CDB7DEB7259799
:1018E000DEBFCDBF8091610190916201A091630143
:1018F000B091640189839A83AB83BC838091650135
:101900008D8389819A81AB81BC810196A11DB11D16
:1019100089839A83AB83BC838D818D5F8D838D8119
:101920008D3770F08D818D578D8389819A81AB8140
:10193000BC810196A11DB11D89839A83AB83BC83B1
:101940008D818093650189819A81AB81BC8180936F
:10195000610190936201A0936301B093640180914F
:101960005D0190915E01A0915F01B09160010196CF
:10197000A11DB11D80935D0190935E01A0935F0155
:10198000B093600100000F900F900F900F900F9098
:10199000DF91CF91BF91AF919F918F910F900FBE2B
:1019A0000F901F901895CF93DF9300D000D000D0F8
:1019B000CDB7DEB78FE590E0FC0180818D83F89490
:1019C00080915D0190915E01A0915F01B0916001F5
:1019D00089839A83AB83BC8386E490E0FC01808199
:1019E0008E8385E390E0FC018081882F90E08170F8
:1019F0009927892B71F08E818F3F59F089819A81C7
:101A0000AB81BC810196A11DB11D89839A83AB83F3
:101A1000BC838FE590E02D81FC01208389819A8130
:101A2000AB81BC812227382F492F5A2F8E81882FD6
:101A300090E0A0E0B0E0820F931FA41FB51F880FB5
:101A4000991FAA1FBB1F880F991FAA1FBB1FBC018C
:101A5000CD0126960FB6F894DEBF0FBECDBFDF9145
:101A6000CF910895CF93DF93CDB7DEB7789484E418
:101A700090E0FC01208184E490E02260FC0120835E
:101A800084E490E0FC01208184E490E02160FC018A
:101A9000208385E490E0FC01208185E490E02260D1
:101AA000FC01208385E490E0FC01208185E490E046
:101AB0002160FC0120838EE690E0FC0120818EE60F
:101AC00090E02160FC01208381E890E0FC0110821D
:101AD00081E890E0FC01208181E890E02260FC0137
:101AE000208381E890E0FC01208181E890E0216082
:101AF000FC01208380E890E0FC01208180E890E0F8
:101B00002160FC01208381EB90E0FC01208181EBCE
:101B100090E02460FC01208380EB90E0FC012081B8
:101B200080EB90E02160FC0120838AE790E0FC01DB
:101B300020818AE790E02460FC0120838AE790E01E
:101B4000FC0120818AE790E02260FC0120838AE783
:101B500090E0FC0120818AE790E02160FC01208375
:101B60008AE790E0FC0120818AE790E02068FC0190
:101B7000208381EC90E0FC0110820000DF91CF9186
:101B80000895CF93DF93CDB7DEB769970FB6F8947A
:101B9000DEBF0FBECDBF888F698F888D882F90E004
:101BA00082559F4F9A83898389819A81FC01849110
:101BB0008B838B818C83888D882F90E086569F4FF6
:101BC0009E838D838D819E81FC0184918F838F8183
:101BD00088878885882309F495C08885882F90E0B8
:101BE000880F991F8A579F4F9A87898789859A8579
:101BF000FC0125913491CF013C872B879A878987F7
:101C00008B859C859E878D878885882F90E0880F9F
:101C1000991F80579F4F988B8F878F859889FC01DC
:101C200025913491CF013A8B298B988B8F878989A5
:101C30009A899C8B8B8B898D882331F58FE590E079
:101C4000FC0180818F8BF8948D859E85FC018081BD
:101C5000982F8C8180958923282F8D859E85FC0166
:101C600020838B899C89FC018081982F8C818095B1
:101C70008923282F8B899C89FC0120838FE590E0A4
:101C80002F89FC0120833FC0898D823021F58FE5AB
:101C900090E0FC0180818E8BF8948D859E85FC01FF
:101CA0008081982F8C8180958923282F8D859E8512
:101CB000FC0120838B899C89FC0190818C81292FD8
:101CC000282B8B899C89FC0120838FE590E02E894D
:101CD000FC01208318C08FE590E0FC0180818D8B92
:101CE000F8948D859E85FC0190818C81292F282B6D
:101CF0008D859E85FC0120838FE590E02D89FC0178
:101D0000208301C0000069960FB6F894DEBF0FBEB5
:101D1000CDBFDF91CF910895CF93DF931F92CDB7C1
:101D2000DEB789838981882F90E08330910591F017
:101D30008430910534F48130910501F1029741F12D
:101D400045C08730910571F188309105A9F104975C
:101D500059F03CC080E890E0FC01208180E890E0F0
:101D60002F77FC01208332C080E890E0FC012081C5
:101D700080E890E02F7DFC01208328C084E490E07F
:101D8000FC01208184E490E02F77FC0120831EC0B9
:101D900084E490E0FC01208184E490E02F7DFC014C
:101DA000208314C080EB90E0FC01208180EB90E068
:101DB0002F77FC0120830AC080EB90E0FC0120819A
:101DC00080EB90E02F7DFC012083000000000F904D
:101DD000DF91CF910895CF93DF93CDB7DEB76597AD
:101DE0000FB6F894DEBF0FBECDBF8C8B6D8B8C8988
:101DF000882F90E08E539F4F9A83898389819A819F
:101E0000FC0184918B838B818C838C89882F90E05B
:101E100082559F4F9E838D838D819E81FC0184918D
:101E20008F838F8188878C89882F90E086569F4F7B
:101E30009A87898789859A85FC0184918B878B8510
:101E40008C878C85882309F444C08C81882311F009
:101E50008C8162DF8C85882F90E0880F991F8057D6
:101E60009F4F9E878D878D859E85FC01259134919E
:101E7000CF01388B2F879E878D878F8598899A8B86
:101E8000898B8FE590E0FC0180818B8BF8948D89A4
:101E9000882371F489899A89FC018081982F88852B
:101EA00080958923282F89899A89FC0120830BC07A
:101EB00089899A89FC0190818885292F282B898915
:101EC0009A89FC0120838FE590E02B89FC01208317
:101ED00001C0000065960FB6F894DEBF0FBECDBFFF
:101EE000DF91CF910895CF93DF93CDB7DEB7F8940C
:101EF00081E0DF91CF910895CF93DF9300D0CDB7EC
:101F0000DEB79A8389838FE590E029813A81F901D0
:101F10002081FC01208300000F900F90DF91CF9172
:101F20000895CF93DF9300D01F92CDB7DEB79B8388
:101F30008A838A819B81FC01848D882F90E02A818D
:101F40003B81820F931F835A9F4FFC0180818983BD
:101F50008A819B81FC01848D882F90E001968F738C
:101F60009078992324F40197806C9F6F0196282F15
:101F70008A819B81FC01248F8A819B81FC01868957
:101F800097892981FC0120838A819B81FC018089BA
:101F90009189FC0180818370282F20648A819B8134
:101FA000FC0180899189FC0120838A819B81FC014D
:101FB000238D8A819B81FC01948D81E0291709F092
:101FC00080E0882379F08A819B81FC018289938952
:101FD000FC0120818A819B81FC01828993892F7D6C
:101FE000FC01208300000F900F900F90DF91CF91A4
:101FF0000895CF93DF93CDB7DEB729970FB6F89446
:10200000DEBF0FBECDBF9C838B834D835E836F830A
:102010007887298780E099E0ADE3B0E02D813E81AB
:102020004F815885BC01CD01A2D4DA01C9010197C5
:10203000A109B109B695A795979587959A83898344
:102040008B819C81FC018089918922E0FC012083A5
:102050008D819E81AF81B8858115914EA105B10515
:1020600029F089819A8181159041E8F08B819C81CA
:10207000FC0180899189FC01108280E894E8AEE13E
:10208000B0E02D813E814F815885BC01CD016FD4D8
:10209000DA01C9010197A109B109B695A7959795EC
:1020A00087959A83898389819A81292F33278B8108
:1020B0009C81FC0184859585FC0120838B819C811A
:1020C000FC01868597852981FC0120838B819C8179
:1020D000FC01108E8B819C81FC0184899589298566
:1020E000FC0120838B819C81FC0182899389FC0106
:1020F00020818B819C81FC01828993892061FC0174
:1021000020838B819C81FC0182899389FC01208141
:102110008B819C81FC01828993892860FC0120834A
:102120008B819C81FC0182899389FC0120818B81B8
:102130009C81FC01828993892068FC0120838B812A
:102140009C81FC0182899389FC0120818B819C8187
:10215000FC01828993892F7DFC0120830000299650
:102160000FB6F894DEBF0FBECDBFDF91CF910895BB
:10217000CF93DF9300D0CDB7DEB79A83898389816F
:102180009A81FC01818D882F90E09C01205C3F4F5B
:1021900089819A81FC01828D882F90E0A901481BDA
:1021A000590BCA018F7399270F900F90DF91CF9130
:1021B0000895CF93DF9300D0CDB7DEB79A8389839C
:1021C00089819A81FC01218D89819A81FC01928DFE
:1021D00081E0291709F080E0882319F08FEF9FEF45
:1021E0000FC089819A81FC01828D882F90E029811E
:1021F0003A81820F931F4D96FC018081882F90E0D9
:102200000F900F90DF91CF910895CF93DF9300D07F
:102210001F92CDB7DEB79B838A838A819B81FC01A5
:10222000218D8A819B81FC01928D81E0291709F023
:1022300080E0882319F08FEF9FEF1CC08A819B817B
:10224000FC01828D882F90E02A813B81820F931FB1
:102250004D96FC01808189838A819B81FC01828D5E
:102260008F5F282F2F738A819B81FC01228F8981A8
:10227000882F90E00F900F900F90DF91CF910895ED
:10228000CF93DF9300D000D0CDB7DEB79C838B8394
:102290008B819C81FC01838D89838B819C81FC01D6
:1022A000848D8A8399818A81981768F08981882F23
:1022B00090E02FE330E0281B390B8A81882F90E0D3
:1022C000820F931F0BC08A81282F30E08981882FCD
:1022D00090E0A901481B590BCA0101970F900F907C
:1022E0000F900F90DF91CF910895CF93DF9300D09F
:1022F000CDB7DEB79A83898389819A81FC01908D5D
:1023000081E08927882309F04DC089819A81FC01E9
:1023100082899389FC018081882F90E080729927BF
:10232000892B69F489819A81FC0180899189FC015A
:102330008081882F90E080749927892B11F481E0A7
:1023400001C080E0882379F18FE590E0FC01808175
:1023500088237CF089819A81FC0182899389FC0120
:102360008081882F90E080729927892B11F081E07D
:1023700001C080E0882349F289819A81FC0180892B
:102380009189FC018081882F90E08072992721E05B
:10239000892B09F420E0222309F4B7CF89819A819F
:1023A000C0DDB3CF00000F900F90DF91CF91089563
:1023B000CF93DF93CDB7DEB728970FB6F894DEBF83
:1023C0000FBECDBF9F838E8368878E819F8121E062
:1023D000FC01208F8E819F81FC01238D8E819F8146
:1023E000FC01848D281779F48E819F81FC018089FE
:1023F0009189FC018081882F90E080729927892B38
:1024000011F081E001C080E0882359F18FE590E070
:10241000FC0180818C8367DD898389818823D9F0E1
:102420008E819F81FC01868997892885FC01208304
:102430008E819F81FC0180899189FC01808183705C
:10244000282F20648E819F81FC0180899189FC0165
:1024500020831982E2CFCE0104964EDD81E090E028
:102460006EC08E819F81FC01838D882F90E0019644
:102470008F739078992324F40197806C9F6F019655
:102480008B838E819F81FC01948D81E02B812917A4
:1024900009F080E08823F9F08FE590E0FC0180816D
:1024A0008095881F8827881F882359F38E819F81F4
:1024B000FC0180899189FC018081882F90E08072E5
:1024C000992721E0892B09F420E02223D1F28E8183
:1024D0009F8127DDD6CF8E819F81FC01838D882F40
:1024E00090E02E813F81820F931F835A9F4F288552
:1024F000FC0120838FE590E0FC0180818D83F3DC7B
:102500008A838A818823B1F08E819F812B81FC018F
:10251000238F8E819F81FC0182899389FC01208118
:102520008E819F81FC01828993892062FC01208336
:102530001A82E7CFCE010596DFDC81E090E0289695
:102540000FB6F894DEBF0FBECDBFDF91CF910895D7
:10255000CF93DF9300D0CDB7DEB79A83898322E48F
:1025600031E089819A81FC013183208389819A81BC
:10257000FC011382128200000F900F90DF91CF9127
:102580000895CF93DF9300D0CDB7DEB79A838983C8
:1025900080E090E00F900F90DF91CF910895CF935E
:1025A000DF9300D0CDB7DEB79A83898300000F9008
:1025B0000F90DF91CF910895CF93DF9300D0CDB7E7
:1025C000DEB79A83898389819A81C2DF20E331E073
:1025D00089819A81FC013183208329813A8188EEA7
:1025E00093E0A0E0B0E0F90184839583A683B783EC
:1025F00000000F900F90DF91CF910895CF92DF925E
:10260000EF92FF920F931F93CF93DF93CDB7DEB777
:102610002E970FB6F894DEBF0FBECDBF9A83898385
:102620007C836B835E834D8338872F831A8709876A
:10263000FC86EB86DE86CD8689819A81BDDF2EE120
:1026400031E089819A81FC013183208389819A81DB
:102650002B813C81FC013587248789819A812D81DA
:102660003E81FC013787268789819A812F813885B1
:10267000FC01318B208B89819A8129853A85FC0167
:10268000338B228B89819A812B853C85FC01358B8C
:10269000248B89819A812D853E85FC01378B268B81
:1026A00089819A81FC01118E89819A81FC01128EA7
:1026B00089819A81FC01138E89819A81FC01148E93
:1026C00000002E960FB6F894DEBF0FBECDBFDF918F
:1026D000CF911F910F91FF90EF90DF90CF900895D1
:1026E000CF93DF9300D000D0CDB7DEB79C838B8330
:1026F0008B819C81FC0180899189FC018081882FDC
:1027000090E08470992721E0892B09F020E02223B2
:1027100071F18B819C81FC0186899789FC01808104
:1027200089838B819C81FC01818D8F5F8F738A836C
:102730008B819C81FC01928D81E02A81291709F40B
:1027400080E08823D9F08B819C81FC01818D882FCA
:1027500090E02B813C81820F931F4D962981FC01D3
:1027600020838B819C812A81FC01218F07C08B8172
:102770009C81FC0186899789FC01808100000F9073
:102780000F900F900F90DF91CF9108951F920F92AD
:102790000FB60F9211242F933F934F935F936F9334
:1027A0007F938F939F93AF93BF93EF93FF93CF93B9
:1027B000DF93CDB7DEB786E691E092DF0000DF91D0
:1027C000CF91FF91EF91BF91AF919F918F917F91A9
:1027D0006F915F914F913F912F910F900FBE0F908E
:1027E0001F9018951F920F920FB60F9211242F93DE
:1027F0003F934F935F936F937F938F939F93AF9389
:10280000BF93EF93FF93CF93DF93CDB7DEB786E609
:1028100091E087DB0000DF91CF91FF91EF91BF91B5
:10282000AF919F918F917F916F915F914F913F9168
:102830002F910F900FBE0F901F901895CF92DF929F
:10284000EF92FF920F931F93CF93DF9300D000D0AE
:10285000CDB7DEB79A8389837C836B8389819A8124
:102860000197C9F48B819C810196A9F40F2EF6EC97
:10287000CF2ED12CF02D0F2EF2ECEF2EF12CF02DCF
:1028800001EC10E020EC30E044EC50E065EC70E04E
:1028900086E691E0B3DE00000F900F900F900F904E
:1028A000DF91CF911F910F91FF90EF90DF90CF902C
:1028B0000895CF93DF93CDB7DEB76FEF7FEF81E061
:1028C00090E0BCDFDF91CF910895CF93DF93CDB738
:1028D000DEB728970FB6F894DEBF0FBECDBF9C833E
:1028E0008B837E836D8358874F831A8219828F81F1
:1028F00098859C012150310938872F8321E0892B4D
:1029000009F420E0222319F18B819C81FC01808154
:102910009181FC01208131818D819E81AC014F5FCD
:102920005F4F5E834D83FC0140818B819C81642FCE
:10293000F901099521E0892B09F420E0222331F0E7
:1029400089819A8101969A838983D1CF00008981F8
:102950009A8128960FB6F894DEBF0FBECDBFDF91E7
:10296000CF910895CF93DF93CDB7DEB728D0A1E202
:102970001A2EAA1BBB1BFD010DC0AA1FBB1FEE1FF9
:10298000FF1FA217B307E407F50720F0A21BB30B44
:10299000E40BF50B661F771F881F991F1A9469F7C0
:1029A00060957095809590959B01AC01BD01CF011C
:1029B0000895EE0FFF1F0590F491E02D099481E03A
:0A29C00090E0F89400C0F894FFCFF7
:1029CA004A01000000000000004000000000000072
:1029DA0000000000003F0000803F00000000D81106
:1029EA00651440117511B8100511D91000000000C6
:1029FA00B2146514C112CF12B214B214B214000088
:0A2A0A000000B2146514C112CF12CF
:00000001FF
